:100000000C9460030C947D030C947D030C947D038D
:100010000C947D030C947D030C947D030C947D0360
:100020000C947D030C947D030C947D030C947D0350
:100030000C947D030C947D030C947D030C947D0340
:100040000C947D030C947D030C947D030C947D0330
:100050000C947D030C947D030C947D030C947D0320
:100060000C947D030C947D030C947D030C947D0310
:1000700000000000005C00000C000C007C287C28C4
:1000800058DC68002410480028542840000C000068
:10009000007884008478000054385400107C1000EC
:1000A00080400000101010000040000060100C00A4
:1000B00038543800487C40004864580044542C00B0
:1000C0001C107C005C5424003854240064140C0080
:1000D00068542C0048543800004800008048000054
:1000E0001028440028282800442810000454080040
:1000F00038445C00781478007C5428003844280088
:100100007C4438007C5444007C140400384474005F
:100110007C107C00447C440020403C007C106C003F
:100120007C4040007C187C0078103C00384438004B
:100130007C1408003844B8007C146800485424003B
:10014000047C04007C407C003C603C007C307C00F3
:100150006C106C000C700C0064544C00007C44006B
:100160000C106000447C00000804080080808000BF
:1001700000040800304878007C48300030484800CF
:1001800030487C00306850001078140090A8780047
:100190007C08700050744000808074007C106800FF
:1001A000447C4000781078007808700030483000B7
:1001B000F82810003048F80078100800505828003F
:1001C000083C4800384078003840380078207800F3
:1001D0004830480098A0780048685800107884009B
:1001E000007C00008478100008040804000000006F
:1001F0000000005F00000007000700147F147F1458
:10020000242A7F2A1223130864623649552250009B
:1002100005030000001C2241000041221C00082AA6
:100220001C2A0808083E080800503000000808088A
:100230000808006060000020100804023E51494593
:100240003E00427F400042615149462141454B31C9
:100250001814127F1027454545393C4A4949300159
:10026000710905033649494936064949291E0036B0
:100270003600000056360000000814224114141401
:10028000141441221408000201510906324979412F
:100290003E7E1111117E7F494949363E414141223E
:1002A0007F4141221C7F494949417F090901013EA3
:1002B000414151327F0808087F00417F41002040C2
:1002C000413F017F081422417F404040407F0204AB
:1002D000027F7F0408107F3E4141413E7F090909AA
:1002E000063E4151215E7F09192946464949493157
:1002F00001017F01013F4040403F1F2040201F7F00
:100300002018207F631408146303047804036151E8
:1003100049454300007F4141020408102041417FCC
:100320000000040201020440404040400001020479
:100330000020545454787F4844443838444444207E
:10034000384444487F3854545418087E0901020840
:100350001454543C7F0804047800447D400020403D
:10036000443D00007F10284400417F40007C041879
:1003700004787C0804047838444444387C14141409
:1003800008081414187C7C080404084854545420A9
:10039000043F4440203C4040207C1C2040201C3C2A
:1003A0004030403C44281028440C5050503C446499
:1003B000544C44000836410000007F0000004136E4
:1003C000080002010302010000000000000000001C
:1003D000065F5F0600000000070700070700001423
:1003E0007F7F147F7F1400242E6B6B3A120000462F
:1003F0006630180C666200307A4F5D377A48000428
:1004000007030000000000001C3E634100000000E4
:1004100041633E1C000000082A3E1C1C3E2A0808BE
:10042000083E3E0808000000A0E060000000000850
:100430000808080808000000006060000000006074
:1004400030180C060301003E7F594D7F3E000042EC
:10045000427F7F40400000627359496F660000226E
:100460006349497F360000181C16137F7F10002750
:100470006745457D3900003C7E4B497930000003DB
:100480006371190F070000367F49497F3600000667
:100490004F49693F1E000000006C6C000000000026
:1004A000A0EC6C00000000081C3663410000001442
:1004B00014141414140000004163361C08000002D8
:1004C0000351590F0600003E7F415D5D1F1E007CF9
:1004D0007E13137E7C0000417F7F49497F36001CDC
:1004E0003E634141632200417F7F41637F1C0041A5
:1004F0007F7F495D416300417F7F491D0103001CEF
:100500003E6341517372007F7F08087F7F000000C7
:10051000417F7F41000000307040417F3F0100413A
:100520007F7F081C776300417F7F41406070007FC0
:100530007F060C067F7F007F7F060C187F7F001CE4
:100540003E6341633E1C00417F7F49090F06001E48
:100550003F21717F5E0000417F7F19396F46002681
:10056000674D597B32000003417F7F410300007FCC
:100570007F40407F7F00001F3F60603F1F00007F83
:100580007F3018307F7F0063771C081C776300077B
:100590004F78784F0700006773594D47637100002B
:1005A0007F7F41410000000103060C18306000000D
:1005B00041417F7F000000080C0603060C08008004
:1005C000808080808080800000030704000000207D
:1005D0007454543C784000413F7F44447C38003898
:1005E0007C44446C280000307848493F7F40003804
:1005F0007C54545C180000487E7F49030200009838
:10060000BCA4A4F87C0400417F7F08047C7800002F
:10061000447D7D4000000040C484FD7D0000004119
:100620007F7F10386C440000417F7F400000007CD9
:100630007C0C180C7C78007C7C04047C78000038EE
:100640007C44447C38000084FCF8A4243C18001846
:100650003C24A4F8FC8400447C78441C1800004826
:100660005C54547424000000043E7F442400003C89
:100670007C40403C7C40001C3C60603C1C00003CDA
:100680007C6030607C3C00446C3810386C44009CCA
:10069000BCA0A0FC7C00004C64745C4C64000008AE
:1006A000083E7741410000000000777700000041DC
:1006B00041773E0808000002030103020301000025
:1006C00011241FBECFEFD4E0DEBFCDBF11E0A0E00C
:1006D000B1E0E6EDFCE102C005900D92A23EB1074B
:1006E000D9F721E0A2EEB1E001C01D92A63FB2070A
:1006F000E1F70E94D4060C94690E0C9400008D9AC8
:100700008C9A12BE78940895E0910A01F0910B0141
:1007100081E8808381E28A95F1F7E0910A01F09106
:100720000B0180810895E0910A01F0910B0180E8AE
:10073000808381E28A95F1F7E0910A01F0910B0143
:1007400080810895CF9386E98093E20187EA8093C0
:10075000E3018BE98093E40186EA8093E501CCE331
:100760000E9484039091E201891718F48093E201BA
:1007700006C09091E301981710F48093E301C150F3
:1007800079F78091E2018A508093E7018091E3013B
:10079000865F8093E601CCE30E9493039091E4018D
:1007A000891718F48093E40106C09091E501981729
:1007B00010F48093E501C15079F78091E4018A50EB
:1007C0008093E9018091E501865F8093E801CF91F4
:1007D00008958F929F92AF92BF92CF92DF92EF9245
:1007E000FF920F931F93CF93DF93D82F0E94840320
:1007F000C82F0E949303D83721F0D93709F46CC071
:10080000DDC0D0E0E090E601F12CEC16FD0654F5D9
:10081000BE016E197F09072E000C880B990B0E94F0
:10082000440820E030E048EC52E40E94D0084B013C
:100830005C01B7010F2C000C880B990B0E94440837
:100840009B01AC0160E070E08FE793E40E942D070C
:100850009B01AC01C501B4010E949A070E940C08DB
:10086000CB0102C080E090E00091E70110E0C017EA
:10087000D1074CF5BE01601B710B072E000C880BD5
:10088000990B0E94440820E030E048EC52E40E94BA
:10089000D0084B015C01B801012E000C880B990BAC
:1008A0000E9444089B01AC0160E070E08FE793E494
:1008B0000E942D079B01AC01C501B4010E949A075B
:1008C0000E940C08CB01CE15DF050CF079C00C1787
:1008D0001D070CF473C074C0C82FD0E06091E8010C
:1008E000062F10E00C171D074CF5BE01601B710BA5
:1008F000072E000C880B990B0E94440820E030E082
:1009000048EC52E40E94D0086B017C01B801110F41
:10091000880B990B0E9444089B01AC0160E070E0D9
:100920008FE793E40E942D079B01AC01C701B6013C
:100930000E949A070E940C08CB0102C080E090E060
:100940000091E90110E0C017D10754F5BE01601B0A
:10095000710B625E7F4F072E000C880B990B0E9473
:10096000440820E030E048EC52E40E94D0086B01DB
:100970007C01B801110F880B990B0E9444089B0160
:10098000AC0160E070E08FE793E40E942D079B01CB
:10099000AC01C701B6010E949A070E940C08CB0166
:1009A0002091E60130E0C217D30754F42091E7010B
:1009B00030E02D513109C217D30714F080E090E0E8
:1009C000DF91CF911F910F91FF90EF90DF90CF902B
:1009D000BF90AF909F908F900895CF93DF93A3E245
:1009E000B1E02EE031E014963C932E9313978CE106
:1009F00091E016969C938E931597EC01BC83AB8384
:100A0000C5E1D1E0FC01D683C5839C838B833E8303
:100A10002D83F901D483C383B683A583CD01DF91F0
:100A2000CF910895CF93DF93EC012D813E8180918A
:100A30000C0190910D0160E22817390761F08A815D
:100A40000E94B80565E0888199810E94A8050D8003
:100A5000DE81C02DEACF8A810E94B80565E08881D9
:100A600099810E94A8050D80DE81C02D60E080E0A4
:100A70000E94B805CE01DF91CF910895FC018281DB
:100A80000E94B80588E10E949B0588E10E949B05B1
:100A90008EE70E949B058CE30E949B0588E10C94E5
:100AA0009B05FC018581968108950F931F93CF9339
:100AB000DF93482F50E0DA01AA0FBB1FAA0FBB1F1C
:100AC00025E0829FC001112423E0440F551F2A9581
:100AD000E1F720E030E0C62FD0E0805A91095A9526
:100AE000A058B1092C173D070CF5653051F068305E
:100AF00071F06430C1F4FD01E20FF31FE059FF4FC4
:100B00000BC0FC01E20FF31FE451FE4F05C0FA01D8
:100B1000E20FF31FE953FC4F749100912A011091E9
:100B20002B01F80170832F5F3F4FDCCFDF91CF9116
:100B30001F910F910895E0912A01F0912B0180837C
:100B4000089590EE980F9F3510F40C945505089574
:100B50001F93CF93DF93162FEC018991882321F007
:100B6000612F0E94A105F9CFDF91CF911F910895C8
:100B7000806BE0912C01F0912D018083862F8F7086
:100B8000E0912C01F0912D01808362956F7060617E
:100B9000E0912C01F0912D016083089560E00C94A8
:100BA000B8050F931F93CF93C0E08C2F0E94CE0502
:100BB00000E110E068E080E20E9455050150110953
:100BC000C9F7CF5FC83089F780E0CF911F910F91AF
:100BD0000C94CE05E0912C01F0912D018EEA8083DA
:100BE000E0912C01F0912D0181EA8083E0912C01AC
:100BF000F0912D018AED8083E0912C01F0912D017F
:100C000082E18083E0912C01F0912D0188EC8083BA
:100C1000E0912C01F0912D0188EA8083E0912C0174
:100C2000F0912D018FE38083E0912C01F0912D0153
:100C300085ED8083E0912C01F0912D0180E8808387
:100C4000E0912C01F0912D0181E88083E0912C014D
:100C5000F0912D018FEF8083E0912C01F0912D0117
:100C600089ED8083E0912C01F0912D0181E2808358
:100C7000E0912C01F0912D018BED8083E0912C010E
:100C8000F0912D0180E38083E0912C01F0912D0102
:100C90008DEA8083E0912C01F0912D011082E0918A
:100CA0002C01F0912D0180E28083E0912C01F091E4
:100CB0002D0182E08083E0912C01F0912D011082C2
:100CC000E0912C01F0912D0180E18083E0912C01D5
:100CD000F0912D0180EB8083E0912C01F0912D01AA
:100CE00084EA8083E0912C01F0912D0186EA8083D3
:100CF000E0912C01F0912D018FEA80830895FF92FD
:100D00000F931F93CF93DF938DE491E09F938F9385
:100D10000E94E4090E9489090E948E090F900F9099
:100D2000C0E0D0E000E010E00E948909F82EBE018A
:100D30000E94CC06CE010E94D006F81611F00F5F7B
:100D40001F4F2196C11588E0D80771F71F921F9297
:100D50001F930F938EE691E09F938F930E94E40977
:100D60000F900F900F900F900F900F90DF91CF91F9
:100D70001F910F91FF9008958FB588648FBD8EB538
:100D800089608EBD1BBC1ABC089585B7806885BF7D
:100D900080B7806280BF0895FB01F85E808308956C
:100DA000985EFC01808108958FE190E00E94210708
:100DB0000E94C5060E947F060E94BC060E947F0317
:100DC0000E94EA050E94D1050E94A2030E94ED0440
:100DD0000E941205EC0160E00E943E05CE010E94D7
:100DE00051052FEF3FEF4EE0215030404040E1F7FA
:100DF00000C0000060E00E943E05C9ECD1E089E738
:100E00000E94E9039F938F93DF93CF930E94E4099D
:100E10002FEF3FE741E0215030404040E1F700C074
:100E200000C00F900F900F900F90E9CF5D9BFECF09
:100E30008CB980E090E008955F9BFECF8CB190E08C
:100E4000089590BD89B988E18AB986E880BD6CE1D2
:100E500077E086E197E00C9499095058BB27AA27C0
:100E60000E9445070C9496080E94880838F00E945A
:100E70008F0820F039F49F3F19F426F40C9485086C
:100E80000EF4E095E7FB0C947F08E92F0E94A70879
:100E900058F3BA17620773078407950720F079F4AF
:100EA000A6F50C94C9080EF4E0950B2EBA2FA02DD0
:100EB0000B01B90190010C01CA01A0011124FF2707
:100EC000591B99F0593F50F4503E68F11A16F04002
:100ED000A22F232F342F4427585FF3CF4695379501
:100EE0002795A795F0405395C9F77EF41F16BA0BC6
:100EF000620B730B840BBAF09150A1F0FF0FBB1F74
:100F0000661F771F881FC2F70EC0BA0F621F731FBC
:100F1000841F48F4879577956795B795F7959E3F19
:100F200008F0B0CF9395880F08F09927EE0F9795AA
:100F3000879508950E94AE070C9496080E948F082A
:100F400058F00E94880840F029F45F3F29F00C9483
:100F50007F0851110C94CA080C9485080E94A708B8
:100F600068F39923B1F3552391F3951B550BBB27D8
:100F7000AA2762177307840738F09F5F5F4F220F1D
:100F8000331F441FAA1FA9F335D00E2E3AF0E0E814
:100F900032D091505040E695001CCAF72BD0FE2F5E
:100FA00029D0660F771F881FBB1F261737074807F2
:100FB000AB07B0E809F0BB0B802DBF01FF279358AA
:100FC0005F4F3AF09E3F510578F00C947F080C94E7
:100FD000CA085F3FE4F3983ED4F38695779567950A
:100FE000B795F7959F5FC9F7880F911D96958795DF
:100FF00097F90895E1E0660F771F881FBB1F6217FE
:1010000073078407BA0720F0621B730B840BBA0BBB
:10101000EE1F88F7E09508950E9413086894B111B7
:101020000C94CA0808950E94AF0888F09F5798F062
:10103000B92F9927B751B0F0E1F0660F771F881FDD
:10104000991F1AF0BA95C9F714C0B13091F00E94F7
:10105000C908B1E008950C94C908672F782F882734
:10106000B85F39F0B93FCCF3869577956795B3951E
:10107000D9F73EF490958095709561957F4F8F4F8D
:101080009F4F0895E89409C097FB3EF49095809592
:10109000709561957F4F8F4F9F4F9923A9F0F92F3E
:1010A00096E9BB279395F695879577956795B795BC
:1010B000F111F8CFFAF4BB0F11F460FF1BC06F5FA2
:1010C0007F4F8F4F9F4F16C0882311F096E911C0B4
:1010D000772321F09EE8872F762F05C0662371F0D5
:1010E00096E8862F70E060E02AF09A95660F771FE9
:1010F000881FDAF7880F9695879597F9089597F9DD
:101100009F6780E870E060E008959FEF80EC0895AD
:1011100000240A94161617061806090608950024D6
:101120000A9412161306140605060895092E039450
:10113000000C11F4882352F0BB0F40F4BF2B11F4C4
:1011400060FF04C06F5F7F4F8F4F9F4F089557FD23
:101150009058440F551F59F05F3F71F04795880F25
:1011600097FB991F61F09F3F79F0879508951216BC
:1011700013061406551FF2CF4695F1DF08C0161668
:1011800017061806991FF1CF869571056105089419
:101190000895E894BB2766277727CB0197F9089530
:1011A0000E94E3080C9496080E94880838F00E9478
:1011B0008F0820F0952311F00C947F080C9485087B
:1011C00011240C94CA080E94A70870F3959FC1F3DC
:1011D000950F50E0551F629FF001729FBB27F00DE5
:1011E000B11D639FAA27F00DB11DAA1F649F66273A
:1011F000B00DA11D661F829F2227B00DA11D621F89
:10120000739FB00DA11D621F839FA00D611D221F42
:10121000749F3327A00D611D231F849F600D211D26
:10122000822F762F6A2F11249F5750409AF0F1F0A9
:1012300088234AF0EE0FFF1FBB1F661F771F881F12
:1012400091505040A9F79E3F510580F00C947F08C3
:101250000C94CA085F3FE4F3983ED4F386957795E3
:101260006795B795F795E7959F5FC1F7FE2B880FB8
:10127000911D9695879597F908958F929F92AF92B9
:10128000BF92CF92DF92EF92FF92CF93DF93EC0168
:10129000688179818A819B8161157105810591053C
:1012A00021F464E279ED8BE597E02DE133EF41E045
:1012B00050E00E94CF0D49015A019B01AC01A7EA01
:1012C000B1E40E94EE0D6B017C01ACEEB4EFA50120
:1012D00094010E94FC0DDC01CB018C0D9D1DAE1D07
:1012E000BF1DB7FF03C00197A109B0488883998348
:1012F000AA83BB839F77DF91CF91FF90EF90DF9020
:10130000CF90BF90AF909F908F9008950E943D091D
:10131000089580E091E00E943D090895A0E0B0E0CA
:101320008093000190930101A0930201B093030107
:1013300008950F931F93CF93DF93009731F46115B6
:10134000710519F480E090E03AC08B01EC016EE089
:1013500070E081E090E00E94DB0BFC01892B91F3AF
:1013600080E883830115110571F01387028781E8F6
:1013700083838091EC019091ED01892B21F4F0930E
:10138000ED01E093EC012097C9F0D187C0878381FC
:10139000826083838091EE019091EF01892B71F43B
:1013A000F093EF01E093EE018091F0019091F10153
:1013B000892B21F4F093F101E093F001CF01DF914B
:1013C000CF911F910F910895A0E0B0E0EAEEF9E00F
:1013D0000C94110EAE014B5F5F4FFA016191719158
:1013E000AF018091EE019091EF010E94FA09E2E0D5
:1013F0000C942D0EABE0B0E0E0E0FAE00C94010EAE
:101400006C017B018A01FC0117821682838181FFB6
:10141000CCC1CE0101963C01F6019381F70193FD09
:10142000859193FF81917F01882309F4BAC18532A8
:1014300039F493FD859193FF81917F01853229F4E1
:10144000B60190E00E94350DE7CF912C212C312C74
:10145000FFE1F315D8F08B3279F038F4803279F06F
:101460008332A1F4232D20611DC08D3261F08033C1
:1014700069F4232D216016C0832D8260382EE32D60
:10148000E4603E2E2AC0F32DF8601DC037FC2DC04D
:1014900020ED280F2A3040F08E32B9F436FC81C19D
:1014A000232D2064322E19C036FE06C08AE0989E95
:1014B000200D1124922E11C0EAE02E9E200D112441
:1014C000222EF32DF0623F2E08C08C3621F4832D9E
:1014D0008068382E02C0883641F4F70193FD85916B
:1014E00093FF81917F018111B3CF982F9F7D9554F8
:1014F000933028F40C5F1F4F9FE399830DC0833610
:1015000031F0833771F0833509F059C021C0F801FB
:10151000808189830E5F1F4F88248394912C53010F
:1015200013C02801F2E04F0E511CF801A080B180D9
:1015300036FE03C0692D70E002C06FEF7FEFC5017A
:101540000E942A0D4C018201F32DFF773F2E16C019
:10155000280122E0420E511CF801A080B18036FE25
:1015600003C0692D70E002C06FEF7FEFC5010E94DC
:10157000180D4C01F32DF0683F2E820133FC1BC087
:10158000822D90E088169906B0F4B60180E290E0D2
:101590000E94350D2A94F4CFF50137FC859137FE72
:1015A00081915F01B60190E00E94350D21102A94CF
:1015B00021E0821A91088114910471F7E8C0843601
:1015C00011F0893641F5F80137FE07C0608171815D
:1015D000828193810C5F1F4F08C060817181072E4B
:1015E000000C880B990B0E5F1F4FF32DFF763F2EDB
:1015F00097FF09C090958095709561957F4F8F4FAB
:101600009F4FF0683F2E2AE030E0A3010E94710D49
:10161000882E861845C0853731F4232D2F7EB22EB3
:101620002AE030E025C0932D997FB92E8F36C1F086
:1016300018F4883579F0B5C0803719F0883721F073
:10164000B0C0E92FE061BE2EB4FE0DC0FB2DF460EA
:10165000BF2E09C034FE0AC0292F2660B22E06C054
:1016600028E030E005C020E130E002C020E132E0B7
:10167000F801B7FE07C060817181828193810C5FA0
:101680001F4F06C06081718180E090E00E5F1F4FA8
:10169000A3010E94710D882E8618FB2DFF773F2E27
:1016A00036FE0DC0232D2E7FA22E891458F434FE51
:1016B0000BC032FC09C0832D8E7EA82E05C0B82C2D
:1016C000A32C03C0B82C01C0B92CA4FE0FC0FE018E
:1016D000E80DF11D8081803321F49A2D997EA92E89
:1016E00009C0A2FE06C0B394B39404C08A2D8678C4
:1016F00009F0B394A3FC11C0A0FE06C0B21488F494
:10170000280C922C9B180EC0B21460F4B60180E233
:1017100090E00E94350DB394F7CFB21418F42B1853
:1017200002C0982C212CA4FE10C0B60180E390E0EA
:101730000E94350DA2FE17C0A1FC03C088E790E00F
:1017400002C088E590E0B6010CC08A2D867859F079
:10175000A1FE02C08BE201C080E2A7FC8DE2B601CF
:1017600090E00E94350D891438F4B60180E390E0D2
:101770000E94350D9A94F7CF8A94F301E80DF11D7C
:101780008081B60190E00E94350D8110F5CF2220B6
:1017900009F442CEB60180E290E00E94350D2A9411
:1017A000F6CFF6018681978102C08FEF9FEF2B96CF
:1017B000E2E10C941D0E0F931F93CF93DF93869F4E
:1017C0008001879F100D969F100D1124C8010E9463
:1017D000F70BEC01009729F0A80160E070E00E948F
:1017E000230DCE01DF91CF911F910F9108950F939B
:1017F0001F93CF93DF938230910510F482E090E045
:10180000E091F401F091F50120E030E0A0E0B0E0DB
:10181000309719F14081518102811381481759078E
:10182000C8F08417950769F4109731F012960C935D
:10183000129713961C9327C00093F4011093F5019F
:1018400022C02115310519F04217530718F49A01E7
:10185000BD01EF01DF01F801DBCF21153105F9F002
:10186000281B390B2430310580F48A819B81611556
:10187000710521F0FB019383828304C09093F501ED
:101880008093F401FE01329644C0FE01E20FF31F83
:101890008193919322503109398328833AC0209152
:1018A000F2013091F301232B41F420910601309194
:1018B00007013093F3012093F2012091040130914C
:1018C00005012115310541F42DB73EB740910801BE
:1018D00050910901241B350BE091F201F091F301C5
:1018E000E217F307A0F42E1B3F0B2817390778F0F7
:1018F000AC014E5F5F4F2417350748F04E0F5F1F56
:101900005093F3014093F2018193919302C0E0E080
:10191000F0E0CF01DF91CF911F910F910895CF9308
:10192000DF93009709F481C0FC0132971382128281
:10193000A091F401B091F501109781F420813181DB
:10194000820F931F2091F2013091F301281739077C
:1019500051F5F093F301E093F20167C0ED0120E04F
:1019600030E0CE17DF0740F44A815B819E014115CC
:101970005105F1F0EA01F5CFD383C2834081518153
:10198000840F951FC817D90759F488819981840F4E
:10199000951F0296918380838A819B8193838283A2
:1019A0002115310529F4F093F501E093F4013DC0D0
:1019B000E901FB83EA8349915991C40FD51FEC17C4
:1019C000FD0761F480819181840F951F0296E901E2
:1019D00099838883828193819B838A83E0E0F0E00E
:1019E00012968D919C911397009719F0FD01DC01DF
:1019F000F7CF8D919C9111979D012E5F3F4F820FE4
:101A0000931F2091F2013091F3012817390769F4EF
:101A1000309729F41092F5011092F40102C013825C
:101A20001282B093F301A093F201DF91CF91089558
:101A3000FC010590615070400110D8F78095909599
:101A40008E0F9F1F0895DC0101C06D9341505040DF
:101A5000E0F70895FC016150704001900110D8F743
:101A6000809590958E0F9F1F08950F931F93CF938E
:101A7000DF93FB01238121FD03C08FEF9FEF2CC07B
:101A800022FF16C0468157812481358142175307B2
:101A900044F4A081B1819D012F5F3F4F31832083AA
:101AA0008C93268137812F5F3F4F3783268314C065
:101AB0008B01EC01FB010084F185E02D0995892B58
:101AC000E1F6D80116968D919C911797019617967D
:101AD0009C938E931697CE01DF91CF911F910F911A
:101AE0000895FA01AA27283051F1203181F1E894B4
:101AF0006F936E7F6E5F7F4F8F4F9F4FAF4FB1E001
:101B00003ED0B4E03CD0670F781F891F9A1FA11DFB
:101B1000680F791F8A1F911DA11D6A0F711D811DFC
:101B2000911DA11D20D009F468943F912AE0269FC1
:101B300011243019305D3193DEF6CF010895462F20
:101B40004770405D4193B3E00FD0C9F7F6CF462F01
:101B50004F70405D4A3318F0495D31FD405241936A
:101B600002D0A9F7EACFB4E0A69597958795779527
:101B70006795BA95C9F700976105710508959B01AE
:101B8000AC010A2E06945795479537952795BA9537
:101B9000C9F7620F731F841F951FA01D0895052E9E
:101BA00097FB1EF400940E94E60D57FD07D00E949B
:101BB000380E07FC03D04EF40C94E60D509540957A
:101BC000309521953F4F4F4F5F4F089590958095E9
:101BD000709561957F4F8F4F9F4F08950E945A0EC9
:101BE000A59F900DB49F900DA49F800D911D112471
:101BF0000895B7FF0C94EE0D0E94EE0D821B930B1F
:101C000008952F923F924F925F926F927F928F92A0
:101C10009F92AF92BF92CF92DF92EF92FF920F937B
:101C20001F93CF93DF93CDB7DEB7CA1BDB0B0FB685
:101C3000F894DEBF0FBECDBF09942A883988488842
:101C40005F846E847D848C849B84AA84B984C884D8
:101C5000DF80EE80FD800C811B81AA81B981CE0FCF
:101C6000D11D0FB6F894DEBF0FBECDBFED010895B4
:101C7000A1E21A2EAA1BBB1BFD010DC0AA1FBB1F90
:101C8000EE1FFF1FA217B307E407F50720F0A21B02
:101C9000B30BE40BF50B661F771F881F991F1A946F
:101CA00069F760957095809590959B01AC01BD0199
:101CB000CF010895A29FB001B39FC001A39F700DF3
:101CC000811D1124911DB29F700D811D1124911D44
:061CD0000895F894FFCF17
:101CD600010000000000F6012000001423012E017F
:101CE6000600000000330104000000003C01020071
:101CF60000000043010000000000001200104578BB
:101D060069740053657474696E67730053636F7208
:101D1600657300506C61792047616D65005374618D
:101D26007274696E67205352414D20746573742E28
:101D36002E2E0A0A0A0A0A0A0A0A0A0A0D0053522B
:101D4600414D207465737420636F6D706C657465A6
:101D5600642077697468200A0D25346420657272E0
:101D66006F727320696E207772697465207068617E
:101D7600736520616E64200A0D25346420657272D5
:101D86006F727320696E2072657472696576616C14
:101D96002070686173650A0D0025640A0D004944C8
:101DA6004C4500555000444F574E004C4546540094
:021DB6005200D9
:00000001FF
