:100000000C9450000C946D000C946D000C946D00D9
:100010000C946D000C946D000C946D000C946D00AC
:100020000C946D000C946D000C946D000C946D009C
:100030000C946D000C946D000C946D000C946D008C
:100040000C946D000C946D000C946D000C946D007C
:100050000C946D000C946D000C946D000C946D006C
:100060000C946D000C946D000C946D000C946D005C
:100070000C946D000C946D000C946D000C946D004C
:100080000C946D000C946D000C94F7000C946D00B2
:100090000C946D000C946D000C946D000C946D002C
:1000A00011241FBECFEFCDBFDFE3DEBF18E2A0E01B
:1000B000B8E2E2E2FBE002C005900D92AE30B1077B
:1000C000D9F728E2AEE0B8E201C01D92AD32B20726
:1000D000E1F70E9440010C9439050C9400000F9345
:1000E0001F93CF938C01FC016081669566956695A0
:1000F00081E30E946401F80160816295660F607E71
:1001000082E30E946401F801618185E30E94640139
:10011000F8018181882371F0C0E0F801EC0FF11D36
:10012000628186E38C0F0E946401CF5FF8018181B8
:10013000C81798F380E30E94B101CF911F910F91EE
:1001400008950F931F93CF938C0181E60E9478014D
:10015000C82F82E60E947801CC0FCC0FCC0F82957D
:10016000869587708C0FF801808385E60E94780160
:10017000F8018183882371F0C0E086E68C0F0E942D
:100180007801F801EC0FF11D8283CF5FF8018181C6
:10019000C81798F340E063E08CE20E948C01CF9195
:1001A0001F910F910895CF93DF93CDB7DEB72A97B4
:1001B000CDBFDEBF8EEF898388E08A831B8281E01A
:1001C0008C8382E08D8383E08E8384E08F8385E05F
:1001D000888786E0898787E08A87CE0101960E941A
:1001E0006F002A96CDBFDEBFDF91CF9108951F9299
:1001F0000F920FB60F9211242F933F934F935F935B
:100200006F937F938F939F93AF93BF93EF93FF93DE
:1002100081E198E20E94A100809113281F928F93A0
:1002200086E79AE49F938F930E94610240E063E027
:100230008CE20E948C018FEF87B90F900F900F9086
:100240000F90FF91EF91BF91AF919F918F917F910F
:100250006F915F914F913F912F910F900FBE0F9033
:100260001F90189588ED21E030E084BF2093610055
:1002700020E030E084BF20936000109200010895D8
:100280000E9432010E944C020E9423020E9432020C
:100290000E94DC010E94D3002FE784E89EE12150F8
:1002A00080409040E1F700C00000F4CF0E9432028D
:1002B00080EC0E943A020E94360287EA91E601979A
:1002C000F1F700C000000895CF93DF93D82FC62F19
:1002D0000E94320282E00E943A028D2F0E943A026E
:1002E0008C2F0E943A020E943602DF91CF9108952E
:1002F000CF93C82F0E94320283E00E943A028C2FD3
:100300000E943A0280E00E943A02C091C4080E9412
:1003100036028C2FCF9108951F93CF93DF93182F20
:10032000D62FC42F0E94320285E00E943A02812F0C
:100330000E943A028D2F0E943A028C2F0E943A02AC
:100340000E943602DF91CF911F910895682F8FE0B0
:100350000E94640183EC99E00197F1F700C000006E
:100360000895CF93C82F0E943202C13369F018F468
:10037000C03331F015C0C23359F0C13669F010C036
:1003800081E80E943A0214C082E80E943A0210C03A
:1003900084E80E943A020CC087E80E943A0208C032
:1003A00080E89AE49F938F930E9461020F900F90D0
:1003B0000E943602CF9108950E9423020E945601A6
:1003C0008EE00E947801807E803841F08EEA9AE4C7
:1003D0009F938F930E9461020F900F90789484B145
:1003E00084B983E08093320461E88AE20E94640168
:1003F0006DEA89E20E94640165E088E20E9464017E
:1004000040E063E08CE20E948C0163E08BE20E949A
:10041000640182ED9AE49F938F930E94610280E4CD
:100420000E94A6018EE00E947801807E0F900F90BE
:10043000803441F08EEF9AE49F938F930E94610283
:100440000F900F900895E0E0F4E080ED818380E26A
:100450008283E0ECF8E08081856280838181816025
:100460008183089580E880930604089580E880934E
:10047000050408958093C408E0ECF8E083818823A4
:10048000ECF70895E0E6F8E0948195FFFDCF8093C6
:10049000620880E090E00895E0E2F4E0808181600D
:1004A0008083E0E6F8E087E490E1808791878681A9
:1004B0008064868380E098E28093292890932A289C
:1004C0000895A0E0B0E0E7E6F2E00C941805AE0174
:1004D0004B5F5F4FFA0161917191AF0180912928C3
:1004E00090912A280E947702E2E00C943105ABE05B
:1004F000B0E0EDE7F2E00C9408056C017B018A01A5
:10050000FC0116821782838181FFCCC1CE01019646
:100510003C01F6019381F70193FD859193FF819151
:100520007F01882309F4BAC1853239F493FD85919E
:1005300093FF81917F01853229F4B60190E00E94FA
:100540006E04E7CF912C212C312CFFE1F315D8F06C
:100550008B3279F038F4803279F08332A1F4232D94
:1005600020611DC08D3261F0803369F4232D21603C
:1005700016C0832D8260382EE32DE4603E2E2AC003
:10058000F32DF8601DC037FC2DC020ED280F2A3058
:1005900040F08E32B9F436FC81C1232D2064322E16
:1005A00019C036FE06C08AE0989E200D1124922EB6
:1005B00011C0EAE02E9E200D1124222EF32DF062B0
:1005C0003F2E08C08C3621F4832D8068382E02C05F
:1005D000883641F4F70193FD859193FF81917F0166
:1005E0008111B3CF982F9F7D9554933028F40C5FE1
:1005F0001F4F9FE399830DC0833631F0833771F02D
:10060000833509F059C021C0F801808189830E5FCC
:100610001F4F88248394912C530113C02801F2E0CA
:100620004F0E511CF801A080B18036FE03C0692D29
:1006300070E002C06FEF7FEFC5010E9463044C01C0
:100640008201F32DFF773F2E16C0280122E0420ED3
:10065000511CF801A080B18036FE03C0692D70E006
:1006600002C06FEF7FEFC5010E9458044C01F32DCB
:10067000F0683F2E820133FC1BC0822D90E088166B
:100680009906B0F4B60180E290E00E946E042A94CC
:10069000F4CFF50137FC859137FE81915F01B601FA
:1006A00090E00E946E0421102A9421E0821A9108A1
:1006B0008114910471F7E8C0843611F0893641F550
:1006C000F80137FE07C060817181828193810C5FE0
:1006D0001F4F08C060817181072E000C880B990B99
:1006E0000E5F1F4FF32DFF763F2E97FF09C09095A9
:1006F0008095709561957F4F8F4F9F4FF0683F2E8B
:100700002AE030E0A3010E94AA04882E861845C082
:10071000853731F4232D2F7EB22E2AE030E025C01C
:10072000932D997FB92E8F36C1F018F4883579F062
:10073000B5C0803719F0883721F0B0C0E92FE061EB
:10074000BE2EB4FE0DC0FB2DF460BF2E09C034FEDA
:100750000AC0292F2660B22E06C028E030E005C06E
:1007600020E130E002C020E132E0F801B7FE07C02E
:1007700060817181828193810C5F1F4F06C060810F
:10078000718180E090E00E5F1F4FA3010E94AA04D8
:10079000882E8618FB2DFF773F2E36FE0DC0232DA9
:1007A0002E7FA22E891458F434FE0BC032FC09C0EF
:1007B000832D8E7EA82E05C0B82CA32C03C0B82C88
:1007C00001C0B92CA4FE0FC0FE01E80DF11D80810F
:1007D000803321F49A2D997EA92E09C0A2FE06C06D
:1007E000B394B39404C08A2D867809F0B394A3FC23
:1007F00011C0A0FE06C0B21488F4280C922C9B18DD
:100800000EC0B21460F4B60180E290E00E946E0463
:10081000B394F7CFB21418F42B1802C0982C212CE3
:10082000A4FE10C0B60180E390E00E946E04A2FE18
:1008300017C0A1FC03C088E790E002C088E590E003
:10084000B6010CC08A2D867859F0A1FE02C08BE259
:1008500001C080E2A7FC8DE2B60190E00E946E0428
:10086000891438F4B60180E390E00E946E049A94F3
:10087000F7CF8A94F301E80DF11D8081B60190E075
:100880000E946E048110F5CF222009F442CEB601F9
:1008900080E290E00E946E042A94F6CFF6018681F1
:1008A000978102C08FEF9FEF2B96E2E10C94210518
:1008B000FC010590615070400110D8F7809590952B
:1008C0008E0F9F1F0895FC01615070400190011030
:1008D000D8F7809590958E0F9F1F08950F931F93C3
:1008E000CF93DF93FB01238121FD03C08FEF9FEFA7
:1008F0002CC022FF16C046815781248135814217C2
:10090000530744F4A081B1819D012F5F3F4F2083A5
:1009100031838C93268137812F5F3F4F2683378326
:1009200014C08B01EC01FB010084F185E02D0995D9
:10093000892BE1F6D80116968D919C911797019617
:1009400016968D939C931797CE01DF91CF911F91AF
:100950000F910895FA01AA27283051F1203181F131
:10096000E8946F936E7F6E5F7F4F8F4F9F4FAF4FB7
:10097000B1E03ED0B4E03CD0670F781F891F9A1FCA
:10098000A11D680F791F8A1F911DA11D6A0F711D7E
:10099000811D911DA11D20D009F468943F912AE08A
:1009A000269F11243019305D3193DEF6CF01089572
:1009B000462F4770405D4193B3E00FD0C9F7F6CFA3
:1009C000462F4F70405D4A3318F0495D31FD40526B
:1009D000419302D0A9F7EACFB4E0A6959795879501
:1009E00077956795BA95C9F70097610571050895E0
:1009F0009B01AC010A2E069457954795379527958C
:100A0000BA95C9F7620F731F841F951FA01D089523
:100A10002F923F924F925F926F927F928F929F920E
:100A2000AF92BF92CF92DF92EF92FF920F931F93FC
:100A3000CF93DF93CDB7DEB7CA1BDB0BCDBFDEBFD5
:100A400009942A88398848885F846E847D848C84E0
:100A50009B84AA84B984C884DF80EE80FD800C81E9
:100A60001B81AA81B981CE0FD11DCDBFDEBFED01A3
:060A70000895F894FFCF89
:100A7600686572652025640A0D00496E76616C69A9
:100A860064206275666665722C20747279206167CF
:100A960061696E2E204275666665722069732061F3
:100AA60020636861720A0D0043414E20434F4E5445
:100AB600524F4C4C4552204E4F5420494E20434FE6
:100AC6004E464947204D4F44450A0D00436F6E661A
:100AD600696720646F6E652C207377697463686933
:100AE6006E6720746F206E6F726D616C206D6F641F
:100AF60065206E6F770A0D0043414E20434F4E54DA
:100B0600524F4C4C4552204E4F5420494E206E6F4A
:0C0B1600726D616C204D4F44450A0D00CB
:0E0B220000000002000000004202000000007F
:00000001FF
