:0200000280007C
:1000000008090020B9060800B5060800B506080072
:10001000B5060800B5060800B50608000000000097
:10002000000000000000000000000000B50608000D
:10003000B506080000000000B5060800B506080077
:10004000B5060800B5060800B50608002911080025
:10005000B5060800B5060800B5060800B506080094
:10006000DD110800B506080000000000B506080014
:10007000B5060800B5060800B50608000000000037
:1000800000000000B5060800B5060800B506080027
:10009000B5060800B5060800B5060800B506080054
:1000A000B506080000000000B5060800B9100800F9
:1000B000B5060800B5060800B5060800B506080034
:1000C000B5060800B5060800B5060800B506080024
:1000D000B5060800B5060800B5060800B506080014
:1000E000B5060800B5060800B5060800C9040800F2
:1000F000B506080010B5054C237833B9044B13B18D
:100100000448AFF300800123237010BD34040020A5
:1001100000000000782008000C4B43B10C4810B5DB
:100120000C49AFF300800C48036823B910BD0A489E
:10013000036833B97047094B002BF7D0BDE8104076
:100140001847064B002BF5D0184700BF00000000F1
:100150007820080038040020782008000000000003
:100160002022054BC3F80021044B5A6842F4A742F1
:100170005A6080221A61704700060E4000000C4051
:10018000194BDA6E40F6D7639A420FDC174B1B7897
:100190002BB9164B01221A705A6801325A60134B60
:1001A0005A68134B1B689A4208D070470F4B1B7854
:1001B000002BF4D000220D4B1A70F0E710B500218F
:1001C0000A4B59600B483C230380012383700A4C7F
:1001D000A368C370094B98474FF480232360022221
:1001E000074B1A6010BD00BF00000C4050040020F7
:1001F0000000002064040020301A0E4009030800AB
:10020000000008402DE9F0435518082998BF082A36
:100210008CBF012200222A43082A62DC0E46324AA1
:10022000136823F0010313601369304B4FF44074DB
:100230005C641C6F24F003041C6703245C605C6630
:10024000A3F500632A4CC3F80C41D3F8004144F4F1
:100250000064C3F800415061A94240DC0A46002412
:10026000A146DFF884804FF0005C4FF0807E0127CC
:10027000530103F1402000F53020C0F804924344BC
:10028000C3F808C2C0F800E2D3F81C0240F4000032
:10029000C3F81C0207FA02F31C4301329542E7DA65
:1002A00081B1002310494FF000554FF0407001EB31
:1002B0004312C2F8085203F1100252018850013370
:1002C0009E42F4D1084B5C604FF40061094A5160D2
:1002D0001A6842F001021A600020BDE8F083002491
:1002E000DEE70120BDE8F08300400B40000E0E4029
:1002F0002B10001000E100E008B502220121014BA3
:10030000984708BD0502080008B54B0103F14023DA
:1003100003F53023D3F8103213F4000F36D00388DE
:100320001D4A02EA834242F000524B0103F140238E
:1003300003F53023C3F808228378072B84BF0723F3
:100340008370827943791B0443EA0263C2781343C2
:10035000027943EA0223490101F1402101F53021EC
:10036000C1F81432827A437A1B0443EA0263C279E9
:100370001343027A43EA0223C1F8183283781B043C
:1003800043F40003C1F81C32002008BD0348044BAD
:100390009847012008BD00BF0000FC1F201F080077
:1003A000650E08004B0103F1402303F53023D3F819
:1003B000103213F4000F33D030B44B0103F140235B
:1003C00003F53023D3F81422D3F81842D3F8085297
:1003D000C5F38A450580D3F81032C3F30343837015
:1003E0001D465BB103300023032BD9BF0270120AF4
:1003F0000470240A01330130AB42F5D1094B01F1FD
:10040000100252014FF08070985003EB4111D1F867
:100410001C3243F40003C1F81C32002030BC70478A
:100420000120704700400B4038B503881E2B14D0C4
:1004300007D93C2B1DD0FE2B0ED11A481A4B9847DA
:1004400038BD0A2B07D1194BC2781A7002795A703D
:1004500042799A7038BD38BD38BD154B1A6842F0E4
:1004600001021A601A6842F004021A60114B9847A0
:1004700038BD114C3C2323800123A3700F4DA96884
:10048000E170C9B20E48084B9847002120460D4B39
:1004900098474FF480232B60054A136843F002030A
:1004A000136038BD441F0800650E0800800400205A
:1004B00000000840FD10080064040020301A0E40BF
:1004C000341F0800090308002DE9F8432A482B4B84
:1004D00098472B4BD3F8109019F0060F2DD019F038
:1004E000020F34D119F0040F3AD0264C02212046D5
:1004F000254B98472046254B9847224C2188244875
:100500001E4DA847A1782348A847A37893B1E51CBE
:100510000024EE1EDFF89080184F33880A2B0CBFA2
:1005200095F9001029784046B84701340135B37871
:10053000A342F2DC1848114B984719F0010F13D170
:100540004FF40062154BC3F88421BDE8F8830D4CCD
:10055000012120460C4B984720460C4B9847CCE78E
:100560000F48064B9847C8E70E48044B98470122AE
:10057000034B9A60E4E700BF741F0800650E080093
:1005800000400B4058040020A5030800290408007F
:10059000B41F0800C81F08002420080000E100E084
:1005A000881F0800E81F0800E41F0800104A53686D
:1005B00043F480335360A2F52062D2F8003143F057
:1005C0004003C2F800310B4B1A6942F002021A6173
:1005D0005A6942F001025A615A6842F480325A6004
:1005E0005A685A605A6842F480725A60704700BF75
:1005F00000100E4000800C40014B1862704700BF95
:1006000000800C400000000010B50D4B98470AA375
:10061000D3E900230B4CA0470B4B98470B4B58607A
:1006200001221A601A46136813F4803FFBD000229F
:10063000064B1A6010BD00BFCDCCCCCCCCCC20403A
:10064000E914080009180800291A080010E000E061
:1006500010B5094B984706A3D3E90023074CA047E0
:10066000074B9847074B984710BD00BFAFF300807A
:10067000000000000082F440E9140800B5150800ED
:10068000D91908000906080010B5054B9847002243
:10069000044B054CA047054B9847054B984710BDA8
:1006A000E914080000005540B5150800D9190800E4
:1006B00009060800FEE7000008B5184B184A9A42E0
:1006C00010D0184B154A9A420CD2013B9B1A23F0CA
:1006D000030304331344124951F8040B42F8040B8A
:1006E0009A42F9D1104B114A9A420AD2013B9B1A05
:1006F00023F0030304331344002142F8041B934204
:10070000FBD10B4B23F0604323F07F03094A936036
:10071000094B9847094B9847FEE700BF00000020AF
:100720007820080034040020040500203404002050
:100730000000080000ED00E0B11D0800E50708001A
:100740004FF48063204A136002F5007213601F4B60
:100750001B6A13F0807F07D11D4A1C4B1A621A4690
:10076000936E13F0010FFBD01A4A184B1A621A4607
:10077000936E13F4803FFBD0144A136B23F00303F2
:1007800043F001031363936E13F0080FFBD0124A7A
:100790000E4B9A621A46936E13F0020FFBD0112291
:1007A0000A4B1A631A46936E13F0080FFBD01222FD
:1007B000064B1A631A46936E13F0080FFBD0074AD4
:1007C000074B1A60704700BF000A0E4000060E403B
:1007D0000908370009083701013F0D2000BD010558
:1007E0000400002008B5114B9847114B9847114B56
:1007F0009847114B9847114B9847114B9847114B0D
:1008000098471148114B98476220114B9847114B5C
:1008100098474FF40042104B5A60104B9847104ACB
:10082000136843F004031360FEE700BF41070800AC
:1008300051110800AD050800890E0800610F08007D
:1008400061010800F508080055351400F902080098
:10085000ED09080045100800501A0E40B50F0800B9
:1008600000800840024A136B43F002031363704791
:1008700000140E40024A536B43F002035363704767
:1008800000140E40024A136B43F0010313637047D8
:1008900000140E40024A536B43F001035363704748
:1008A00000140E40024A536B43F004035363704735
:1008B00000140E40024A536B43F004035363704725
:1008C00000140E40024A136B43F400731363704725
:1008D00000140E4008B5044B98470520034B984779
:1008E000034B984708BD00BF750808005106080073
:1008F0006508080010B4114B1A6942F400521A61DD
:100900001A6942F480421A6103F540631A6842F0A2
:10091000FE021A605A6942F0FE025A61084A1068E3
:1009200040F20764204310601169214311611A6A83
:1009300042F4FF721A6210BC704700BF00060E40FE
:1009400000140E4070B50D4B98470D4B984714207E
:100950000C4EB0470C4CE56B0C4B98471420B0473D
:10096000E46B0B4B9847C5F34703C4F3470050EAC9
:1009700003201CBF404280B200B270BD9508080041
:10098000A50808008906080000120E40B5080800F6
:100990008508080010B1012806D07047054A536B3E
:1009A00043F4806353637047024A136B43F48063DC
:1009B0001363704700140E4010B5041E06DD0120BD
:1009C000084B9847A0B2084B984710BD0020054B34
:1009D000984784EAE470A0EBE47080B2024B984739
:1009E00010BD00BF95090800F90508002DE9F04188
:1009F0000446254B9847672C3FD06D2C40D0622C85
:100A000040F2DC5718BF00270520204CA04738468D
:100A10001F4EB0474FF4C870A0474FF4C870A047AE
:100A20004FF4C870A0471B4B9847DFF87880C04749
:100A3000194D68807842B0474FF4C870A0474FF412
:100A4000C870A0474FF4C870A047C04728803846F8
:100A5000B0474FF4C870A0474FF4C870A0474FF498
:100A6000C870A0470020B047B5F90020B5F90210C2
:100A70000A480B4B9847BDE8F0814FF47A77C3E7FB
:100A800040F21457C0E700BFC5080800510608002F
:100A9000B9090800D50808008404002004200800D3
:100AA000650E0800450908002DE9F84304464E7814
:100AB0002F4B98472F4B98472F4DA84700222F4B7D
:100AC0002F4FB847804689462E4BB3F90000A84700
:100AD00002460B46404649462B4DA8472B4B9847AC
:100AE00000B22B4B1880142222700622627003225F
:100AF0006280002020721A88921B92B215B2A580E3
:100B0000B4F906302B44B4F90A100B4403EB430349
:100B10005B0093FBF0F3638102EB8201890089B2F1
:100B2000E181A081E580013292B2022A15D90B44FD
:100B30009BB21AB2824208DD40F2DC518A4211DCDB
:100B400003EB4303580000B208E012498A420CDB71
:100B500003EB4303580000B200E000200E4B98471F
:100B6000BDE8F88340F2DC50F8E70A48F6E700BF3A
:100B7000C508080045090800E914080000005940AC
:100B8000B51508008404002009180800D9190800C8
:100B90008E04002024FAFFFFB90908002DE9F8436C
:100BA0000D46161E48DD0A78002A35D00A46002474
:100BB000013412F8011F0029FAD1A6422DDC0024CD
:100BC00003F00202002A0CBF4FF020084FF030085B
:100BD00013F0010323D1002C28DD26465FFA88F9A3
:100BE000184F4846B847013EFBD1287888B1154FC9
:100BF000B847013415F8010F0028F9D1002E08DD9F
:100C000035465FFA88F80F4F4046B847013DFBD1A3
:100C100034442046BDE8F8830024341BD0E7264640
:100C2000287808B10024E2E70024E7E726461C46BE
:100C3000DBE74FF02008D8E713F00104F9D04FF0BC
:100C40002008EDE7B9110800F0B585B0074681B37B
:100C50000C460BB10A2A38D000238DF80F3000263D
:100C6000002946D00DF10F050C993A39B4FBF2F387
:100C700002FB1343092BC8BF5B18303305F8013D55
:100C8000B4FBF2F4002CF1D156B10A9B1BB10B9BC3
:100C900013F0020F25D12D2305F8013C013D00265C
:100CA0000B9B0A9A29463846144CA047304405B09D
:100CB000F0BD30238DF8043000238DF805300B9BF8
:100CC0000A9A01A90D4CA047F1E70029C4DA4C4269
:100CD00000238DF80F300DF10F05002CD5D0012623
:100CE000C0E72D20064B98470A9B013B0A9301263B
:100CF000D6E71E460DF10F05D2E700BF9D0B080099
:100D0000B91108002DE9F04F87B080460B78002B11
:100D100000F094808B46174600254E4EDFF83CA12C
:100D2000DFF83C9146E0002270E0396804374A4819
:100D3000002908BF01464046D047054435E03968E0
:100D40000437612002900193009201230A22404659
:100D5000C847054429E039680437612002900193AF
:100D60000092002310224046C84705441DE0396820
:100D70000437412002900193009200231022404644
:100D8000C847054411E03968043761200290019397
:100D9000009200230A224046C847054405E0A346C6
:100DA0009BF80000B04701355C4604F1010B637805
:100DB000002B44D0252BF3D10BF101049BF801301B
:100DC000002B3CD0252BEAD02D2B06BF0BF10204C3
:100DD000012300232278302A05D143F0020314F8BE
:100DE000012F302AF9D02178A1F13002D2B2092A9C
:100DF00099D8002202EB8202303901EB420214F84A
:100E0000011FA1F13000C0B20928F3D973298CD099
:100E1000642994D078299ED05829A8D07529B2D0B9
:100E20006329C2D1396804378DF8141000218DF878
:100E3000151005A94046D0470544B6E70025B8F18E
:100E4000000F03D0D8F8003000221A70284607B0EF
:100E5000BDE8F08FB9110800282008009D0B08009C
:100E6000490C08000FB400B583B004AA52F8041B63
:100E700001920020034B984703B05DF804EB04B0E7
:100E8000704700BF050D08001022124BC3F8002167
:100E900003F540635A6842F400225A601A6F42F424
:100EA00000221A670C4A202151604FF40371C2F8E6
:100EB000A012116841F4A801116044F62061C2F843
:100EC000AC121A6842F480221A601A6942F4802235
:100ED0001A61704700060E400040094010B5A0EBB3
:100EE0008000400000F2DC50094B98470446094955
:100EF000094B984730B909492046094B984710B12A
:100F0000064C00E0034C2046064B984780B210BDCB
:100F1000DD1B080000006144211D0800004003455E
:100F20005D1D0800711D080010B5044690F9000011
:100F3000084B9847084BC3F8A402A37823B14FF499
:100F40008022064B5A6310BD4FF48022034B1A6374
:100F500010BD00BFDD0E08000040094000120E4029
:100F6000124B5A6842F404525A601A6F42F4045207
:100F70001A6703F580635A6842F480125A601A6F48
:100F800042F480121A670A4B5A6842F015025A60FE
:100F90004FF40372C3F80022C3F8402244F62062E3
:100FA000C3F80C22C3F84C22704700BF000E0E405D
:100FB0000040094070B5214D0026C5F80462C5F80F
:100FC00044624FF4C8701E4CA0474FF4C870A0474D
:100FD0004FF4C870A04741F28833C5F80432C5F811
:100FE00044324FF4C870A0474FF4C870A0474FF484
:100FF000C870A04742F21073C5F80432C5F84432F5
:101000004FF4C870A0474FF4C870A0474FF4C870A1
:10101000A04743F69823C5F80432C5F844324FF48C
:10102000C870A0474FF4C870A0474FF4C870A047DD
:10103000C5F80462C5F8446270BD00BF00400940B5
:1010400051060800184B1A6842F000721A601A6FB5
:1010500042F000721A675A6C42F000725A64134AE6
:10106000136943F0006343F480531361104B5A68D3
:1010700042F400425A605A6842F4C82242F0030225
:101080005A6043F24532DA611A6842F001021A608E
:101090005A6A42F010025A62064B202283F81B2340
:1010A0004FF000621A60704700100E4000060E40BC
:1010B0000000084000E100E010B5094C2046094B53
:1010C000984721460848094B9847094B98474FF0E5
:1010D0000062084BC3F88021074B1B6A10BD00BF9C
:1010E00080040020290F080070040020A90A0800CD
:1010F0008101080000E100E000000840084B1A6888
:1011000042F400421A601A6842F400321A601A6807
:1011100042F480221A600822024B1A60704700BF16
:10112000301A0E4000E100E0074B0822C3F880208F
:10113000BFF34F8FBFF36F8F044988688868C96811
:10114000C3F880211A60704700E100E0301A0E40B9
:10115000164B00221A705A70154B4FF440715964A7
:1011600059601A6F186F024022F440721A6759666C
:101170004FF48072A3F500631A6103F50073AC218C
:10118000196040F2232119624FF40061596040F266
:101190000221C3F820114FF0FF31D960E12199609D
:1011A00004490A6050221A60704700BF9C04002066
:1011B000000E0E4000E100E0074B5B6913F0020FE8
:1011C00008D0054BD8611A46536913F4007FFBD051
:1011D000002070470120704700080E4008B5154BED
:1011E0005B6913F0E00F03D04FF4A871114A11604E
:1011F00013F0010F12D010484278531C594203F0EB
:101200003F0301F03F0158BF4B4201788B4206D0AB
:101210000849886908490A4490704B7008BD07481E
:10122000074B9847034B9A69034B59780B449A70C4
:1012300008BD00BF00080E409C04002030200800BC
:10124000650E080081F0004102E000BF83F000431A
:1012500030B54FEA41044FEA430594EA050F08BF51
:1012600090EA020F1FBF54EA000C55EA020C7FEA15
:10127000645C7FEA655C00F0E2804FEA5454D4EB92
:101280005555B8BF6D420CDD2C4480EA020281EA5C
:10129000030382EA000083EA010180EA020281EA94
:1012A0000303362D88BF30BD11F0004F4FEA0131E6
:1012B0004FF4801C4CEA113102D0404261EB4101F5
:1012C00013F0004F4FEA03334CEA133302D052427B
:1012D00063EB430394EA050F00F0A780A4F1010437
:1012E000D5F1200E0DDB02FA0EFC22FA05F2801871
:1012F00041F1000103FA0EF2801843FA05F3594157
:101300000EE0A5F120050EF1200E012A03FA0EFCD5
:1013100028BF4CF0020C43FA05F3C01851EBE371FF
:1013200001F0004507D54FF0000EDCF1000C7EEB1C
:1013300000006EEB0101B1F5801F1BD3B1F5001F5A
:101340000CD349085FEA30004FEA3C0C04F1010479
:101350004FEA445212F5800F80F09A80BCF1004FA2
:1013600008BF5FEA500C50F1000041EB045141EA24
:10137000050130BD5FEA4C0C404141EB010111F425
:10138000801FA4F10104E9D191F0000F04BF0146D0
:101390000020B1FA81F308BF2033A3F10B03B3F1AE
:1013A00020020CDA0C3208DD02F1140CC2F10C023E
:1013B00001FA0CF021FA02F10CE002F11402D8BF9C
:1013C000C2F1200C01FA02F120FA0CFCDCBF41EA68
:1013D0000C019040E41AA2BF01EB0451294330BD37
:1013E0006FEA04041F3C1CDA0C340EDC04F1140414
:1013F000C4F1200220FA04F001FA02F340EA0300EB
:1014000021FA04F345EA030130BDC4F10C04C4F130
:10141000200220FA02F001FA04F340EA0300294610
:1014200030BD21FA04F0294630BD94F0000F83F45A
:10143000801306BF81F480110134013D4EE77FEA3D
:10144000645C18BF7FEA655C29D094EA050F08BF89
:1014500090EA020F05D054EA000C04BF194610466A
:1014600030BD91EA030F1EBF0021002030BD5FEAAE
:10147000545C05D14000494128BF41F0004130BDD6
:1014800014F580043CBF01F5801130BD01F000452A
:1014900045F0FE4141F470014FF0000030BD7FEA9D
:1014A000645C1ABF194610467FEA655C1CBF0B4698
:1014B000024650EA013406BF52EA033591EA030FAF
:1014C00041F4002130BD00BF90F0000F04BF0021A7
:1014D000704730B54FF4806404F132044FF00005DA
:1014E0004FF0000150E700BF90F0000F04BF002153
:1014F000704730B54FF4806404F1320410F00045B9
:1015000048BF40424FF000013EE700BF42004FEAB3
:10151000E2014FEA31014FEA02701FBF12F07F4330
:1015200093F07F4F81F06051704792F0000F14BF2D
:1015300093F07F4F704730B54FF4607401F0004571
:1015400021F0004120E700BF50EA010208BF7047C8
:1015500030B54FF000050AE050EA010208BF7047BD
:1015600030B511F0004502D5404261EB41014FF426
:10157000806404F132045FEA915C3FF4DCAE4FF02A
:1015800003025FEADC0C18BF03325FEADC0C18BF11
:10159000033202EBDC02C2F1200300FA03FC20FA62
:1015A00002F001FA03FE40EA0E0021FA02F11444AF
:1015B000C1E600BF70B54FF0FF0C4CF4E06C1CEAC4
:1015C00011541DBF1CEA135594EA0C0F95EA0C0F39
:1015D00000F0DEF82C4481EA030621EA4C5123EAAC
:1015E0004C5350EA013518BF52EA033541F48011DB
:1015F00043F4801338D0A0FB02CE4FF00005E1FB8E
:1016000002E506F00042E0FB03E54FF00006E1FBD7
:1016100003569CF0000F18BF4EF0010EA4F1FF041A
:10162000B6F5007F64F5407404D25FEA4E0E6D415A
:1016300046EB060642EAC62141EA55514FEAC5206B
:1016400040EA5E504FEACE2EB4F1FD0C88BFBCF5E7
:10165000E06F1ED8BEF1004F08BF5FEA500E50F198
:10166000000041EB045170BD06F0004646EA01015E
:1016700040EA020081EA0301B4EB5C04C2BFD4EB90
:101680000C0541EA045170BD41F480114FF0000E89
:10169000013C00F3AB8014F1360FDEBF002001F0F7
:1016A000004170BDC4F10004203C35DA0C341BDC71
:1016B00004F11404C4F1200500FA05F320FA04F043
:1016C00001FA05F240EA020001F0004221F0004177
:1016D00010EBD37021FA04F642EB06015EEA430EEA
:1016E00008BF20EAD37070BDC4F10C04C4F120051A
:1016F00000FA04F320FA05F001FA04F240EA0200CD
:1017000001F0004110EBD37041F100015EEA430E9D
:1017100008BF20EAD37070BDC4F1200500FA05F2BD
:101720004EEA020E20FA04F301FA05F243EA02033C
:1017300021FA04F001F0004121FA04F220EA02004B
:1017400000EBD3705EEA430E08BF20EAD37070BD91
:1017500094F0000F0FD101F00046400041EB010171
:1017600011F4801F08BF013CF7D041EA060195F053
:10177000000F18BF704703F00046520043EB03030D
:1017800013F4801F08BF013DF7D043EA06037047FA
:1017900094EA0C0F0CEA135518BF95EA0C0F0CD005
:1017A00050EA410618BF52EA4306D1D181EA03014B
:1017B00001F000414FF0000070BD50EA410606BF45
:1017C0001046194652EA430619D094EA0C0F02D18A
:1017D00050EA013613D195EA0C0F05D152EA0336CF
:1017E0001CBF104619460AD181EA030101F00041ED
:1017F00041F0FE4141F470014FF0000070BD41F036
:10180000FE4141F4780170BD70B54FF0FF0C4CF40F
:10181000E06C1CEA11541DBF1CEA135594EA0C0F2E
:1018200095EA0C0F00F0A7F8A4EB050481EA030E7B
:1018300052EA03354FEA013100F088804FEA033362
:101840004FF0805545EA131343EA12634FEA022230
:1018500045EA111545EA10654FEA00260EF00041F1
:101860009D4208BF964244F1FD0404F5407402D243
:101870005B084FEA3202B61A65EB03055B084FEAD4
:1018800032024FF480104FF4002CB6EB020E75EBD1
:10189000030E22BFB61A754640EA0C005B084FEAF9
:1018A0003202B6EB020E75EB030E22BFB61A754676
:1018B00040EA5C005B084FEA3202B6EB020E75EBC1
:1018C000030E22BFB61A754640EA9C005B084FEA39
:1018D0003202B6EB020E75EB030E22BFB61A754646
:1018E00040EADC0055EA060E18D04FEA051545EA35
:1018F00016754FEA06164FEAC30343EA52734FEADE
:10190000C2025FEA1C1CC0D111F4801F0BD141EA56
:1019100000014FF000004FF0004CB6E711F4801FBB
:1019200004BF01430020B4F1FD0C88BFBCF5E06F9B
:101930003FF6AFAEB5EB030C04BFB6EB020C5FEAAB
:10194000500C50F1000041EB045170BD0EF0004E00
:101950004EEA113114EB5C04C2BFD4EB0C0541EA32
:10196000045170BD41F480114FF0000E013C90E62F
:1019700045EA060E8DE60CEA135594EA0C0F08BFF3
:1019800095EA0C0F3FF43BAF94EA0C0F0AD150EAF2
:1019900001347FF434AF95EA0C0F7FF425AF104685
:1019A00019462CE795EA0C0F06D152EA03353FF4AD
:1019B000FDAE1046194622E750EA410618BF52EA2A
:1019C00043067FF4C5AE50EA41047FF40DAF52EAFE
:1019D00043057FF4EBAE12E74FEA410212F5001225
:1019E00015D211D56FF47873B3EB625212D94FEA66
:1019F000C12343F0004343EA505311F0004F23FA50
:101A000002F018BF404270474FF00000704750EAA4
:101A1000013005D111F0004008BF6FF00040704761
:101A20004FF00000704700BF4A0011D212F50012BB
:101A300011D20DD56FF47873B3EB62520ED44FEA26
:101A4000C12343F0004343EA505323FA02F07047A6
:101A50004FF00000704750EA013002D14FF0FF30E4
:101A600070474FF00000704780F0004002E000BF78
:101A700081F0004142001FBF5FEA410392EA030F79
:101A80007FEA226C7FEA236C6AD04FEA1262D2EBC3
:101A90001363C1BFD218414048404140B8BF5B42C8
:101AA000192B88BF704710F0004F40F4000020F061
:101AB0007F4018BF404211F0004F41F4000121F077
:101AC0007F4118BF494292EA030F3FD0A2F10102C1
:101AD00041FA03FC10EB0C00C3F1200301FA03F1FF
:101AE00000F0004302D5494260EB4000B0F5000F22
:101AF00013D3B0F1807F06D340084FEA310102F1E1
:101B00000102FE2A51D2B1F1004F40EBC25008BF92
:101B100020F0010040EA03007047490040EB00005C
:101B200010F4000FA2F10102EDD1B0FA80FCACF18B
:101B3000080CB2EB0C0200FA0CF0AABF00EBC2508A
:101B400052421843BCBFD0401843704792F0000F78
:101B500081F4000106BF80F400000132013BB5E7CB
:101B60004FEA41037FEA226C18BF7FEA236C21D041
:101B700092EA030F04D092F0000F08BF08467047A6
:101B800090EA010F1CBF0020704712F07F4F04D174
:101B9000400028BF40F00040704712F100723CBF87
:101BA00000F50000704700F0004343F0FE4040F4B1
:101BB000000070477FEA226216BF08467FEA23636F
:101BC0000146420206BF5FEA412390EA010F40F45A
:101BD000800070474FF0000304E000BF10F00043A6
:101BE00048BF40425FEA000C08BF704743F096438D
:101BF00001464FF000001CE050EA010208BF7047A8
:101C00004FF000030AE000BF50EA010208BF70472E
:101C100011F0004302D5404261EB41015FEA010C43
:101C200002BF84460146002043F0B64308BFA3F13B
:101C30008053A3F50003BCFA8CF2083AA3EBC2531D
:101C400010DB01FA02FC634400FA02FCC2F120023C
:101C5000BCF1004F20FA02F243EB020008BF20F073
:101C60000100704702F1200201FA02FCC2F12002D9
:101C700050EA4C0021FA02F243EB020008BF20EACE
:101C8000DC7070474FF0FF3C06E000BF4FF0010CE6
:101C900002E000BF4FF0010C4DF804CD4FEA4002C6
:101CA0004FEA41037FEA226C18BF7FEA236C11D010
:101CB00001B052EA530C18BF90EA010F58BFB2EBC3
:101CC000030088BFC81738BF6FEAE17018BF40F043
:101CD000010070477FEA226C02D15FEA402C05D1F7
:101CE0007FEA236CE4D15FEA412CE1D05DF8040B7C
:101CF000704700BF844608466146FFE70FB5FFF70F
:101D0000C9FF002848BF10F1000F0FBD4DF808EDC6
:101D1000FFF7F4FF0CBF012000205DF808FB00BFB7
:101D20004DF808EDFFF7EAFF34BF012000205DF811
:101D300008FB00BF4DF808EDFFF7E0FF94BF01205E
:101D400000205DF808FB00BF4DF808EDFFF7D2FF5B
:101D500094BF012000205DF808FB00BF4DF808ED9E
:101D6000FFF7C8FF34BF012000205DF808FB00BF6B
:101D700042000ED2B2F1FE4F0BD34FF09E03B3EBF5
:101D8000126209D44FEA002343F0004323FA02F021
:101D900070474FF00000704712F1610F01D142020D
:101DA00002D14FF0FF3070474FF00000704700BF86
:101DB00070B50F4E0F4D761BB61018BF002405D01E
:101DC000013455F8043B9847A642F9D10A4E0B4D11
:101DD00000F040F9761BB61018BF002406D001347D
:101DE00055F8043B9847A642F9D170BD70BD00BFBD
:101DF00060200800602008006820080060200800BB
:101E0000024B13B1024800F005B870470000000013
:101E1000211E0800002301461A46184600F01EB88D
:101E200038B50A4C0A4D641BA4100AD004F1804353
:101E3000013B05EB8305013C55F804399847002C1C
:101E4000F9D1BDE8384000F00FB900BF7820080094
:101E500074200800704700BF704700BF2DE9F843A9
:101E60002C4D0646286898460F469146FFF7F2FF2C
:101E7000294B1C68D4F84831002B3ED05A681F2AE1
:101E80001CDC02F1010E76B1012103EB8204C4F8DF
:101E90008890D3F8880191400843022EC3F8880146
:101EA000C4F8088123D00232C3F804E0286843F85C
:101EB0002270FFF7D1FF0020BDE8F883174B0BB36A
:101EC0004FF4C870AFF300800346D8B10020D4F8B7
:101ED00048114FF0010E586019600246C4F84831AD
:101EE000C3F88801C3F88C01002EDCD0CCE7D3F80E
:101EF0008C010143C3F88C11D5E704F5A673C4F82F
:101F00004831BBE72868FFF7A7FF4FF0FF30BDE877
:101F1000F88300BF300400205020080000000000BB
:101F20004D657373616765206E6F742073656E74A1
:101F3000200A0D0053636F7265206973203A2025D3
:101F4000640A0D005468652074657374206D6573B0
:101F50007361676520686173206265656E207265D4
:101F600063656976656420636F72726563746C790A
:101F70000A0D000043414E3020696E74657272751F
:101F800070740A0D0000000043414E30206D6573EF
:101F900073616765206172726976656420696E207D
:101FA0006E6F6E2D75736564206D61696C626F78FC
:101FB0000A0D00006D6573736167652069643A20DE
:101FC00025640A0D000000006D657373616765206C
:101FD00064617461206C656E6774683A2025640AD8
:101FE0000D0000002564200043414E30204D42305A
:101FF00020726561647920746F2073656E64200AB5
:102000000D000000456E636F646572206D696E3A65
:102010002025640920456E636F646572206D6178C8
:102020003A2025640A0D0000286E756C6C290000AA
:102030004552523A205541525420525820627566FA
:102040006665722069732066756C6C0A0D0000006D
:1020500008000020F8B500BFF8BC08BC9E467047D9
:10206000011E080019010800F8B500BFF8BC08BC43
:082070009E467047F5000800D0
:102078000300000000093D0000000000F4020020F9
:102088005C030020C40300200000000000000000E2
:102098000000000000000000000000000000000038
:1020A8000000000000000000000000000000000028
:1020B8000000000000000000000000000000000018
:1020C8000000000000000000000000000000000008
:1020D80000000000000000000000000000000000F8
:1020E80000000000000000000000000000000000E8
:1020F80000000000000000000000000000000000D8
:1021080000000000000000000000000000000000C7
:1021180000000000000000000000000000000000B7
:1021280001000000000000000E33CDAB34126DE654
:10213800ECDE05000B0000000000000000000000BD
:102148000000000000000000000000000000000087
:102158000000000000000000000000000000000077
:102168000000000000000000000000000000000067
:102178000000000000000000000000000000000057
:0424A800E00400202C
:040000038000000079
:00000001FF
