:100000000C9438000C9455000C9455000C94550039
:100010000C9455000C9455000C9455000C9455000C
:100020000C9455000C9455000C9455000C945500FC
:100030000C9455000C9455000C9455000C945500EC
:100040000C9455000C9455000C9455000C945500DC
:100050000C9455000C9455000C9455000C945500CC
:100060000C9455000C9455000C9455000C945500BC
:1000700011241FBECFEFD4E0DEBFCDBF11E0A0E062
:10008000B1E0EAEDFCE002C005900D92A03CB107A2
:10009000D9F721E0A0ECB1E001C01D92AA3CB20763
:1000A000E1F70E9407010C946B060C9400008C9AF7
:1000B0000895809300120895E0E0F0E18EEA8083D5
:1000C00081EA80838AED808382E1808388EC80836B
:1000D00088EA80838FE3808385ED808380E8808356
:1000E00081E8808380E5808389ED808381E280835D
:1000F00080E2808382E080838BED808380E3808355
:100100008DEA8083108284EA808386EA80838FEA86
:1001100080830895BF92CF92DF92EF92FF920F9368
:100120001F93CF93DF938AE091E09F938F930E9478
:10013000F5010E949A010E949F010F900F90C0E06C
:10014000D0E0E12CF12C0F2EFBE2CF2EF1E0DF2EE0
:10015000F02D0E949A018C01BE010E94FF00CE0189
:100160000E9403010817B1F011271F930F931F92EC
:100170008F93DF93CF93DF92CF920E94F5018FEFA1
:10018000E81AF80A8DB79EB708960FB6F8949EBF86
:100190000FBE8DBF2196C11598E0D907D1F61F92E9
:1001A0001F92FF92EF9285E691E09F938F930E94BA
:1001B000F5010F900F900F900F900F900F90DF911F
:1001C000CF911F910F91FF90EF90DF90CF90BF9054
:1001D0000895EBE8F0E0808188648083EAE8F0E04D
:1001E0008081896080831092870010928600089534
:1001F00085B7806885BF80B7806280BF0895FB01A6
:10020000F85E80830895985EFC01808108958FE1F7
:1002100090E00E9432010E94F8000E948A000E9431
:10022000E9000E9457000E945C0088E10E9459008A
:1002300088E10E9459008EE70E9459008CE30E94D9
:10024000590088E10E94590080E090E008955D9B8C
:10025000FECF8CB980E090E008955F9BFECF8CB11B
:1002600090E0089590BD89B988E18AB986E880BD9B
:100270006DE271E087E291E00E94AA010895A29FD9
:10028000B001B39FC001A39F700D811D1124911D6A
:10029000B29F700D811D1124911D08958F929F9220
:1002A000AF92BF92CF92DF92EF92FF92CF93DF9304
:1002B000EC01688179818A819B81611571058105D5
:1002C000910521F464E279ED8BE597E02DE133EFC0
:1002D00041E050E00E94E00549015A019B01AC0158
:1002E000A7EAB1E40E94FF056B017C01ACEEB4EF1C
:1002F000A50194010E940D06DC01CB018C0D9D1D12
:10030000AE1DBF1DB7FF03C00197A109B048888388
:100310009983AA83BB839F77DF91CF91FF90EF9062
:10032000DF90CF90BF90AF909F908F9008950E94E4
:100330004E01089580E091E00E944E010895A0E0F2
:10034000B0E08093000190930101A0930201B0936B
:10035000030108950F931F93CF93DF93009731F418
:100360006115710519F480E090E03AC08B01EC0151
:100370006EE070E081E090E00E94EC03FC01892BCC
:1003800091F380E883830115110571F013870287CB
:1003900081E883838091C0019091C101892B21F470
:1003A000F093C101E093C0012097C9F0D187C087C5
:1003B0008381826083838091C2019091C301892BE4
:1003C00071F4F093C301E093C2018091C401909154
:1003D000C501892B21F4F093C501E093C401CF013D
:1003E000DF91CF911F910F910895A0E0B0E0EBEF66
:1003F000F1E00C942206AE014B5F5F4FFA01619170
:100400007191AF018091C2019091C3010E940B02D2
:10041000E2E00C943E06ABE0B0E0E1E1F2E00C94E7
:1004200012066C017B018A01FC011782168283810E
:1004300081FFCCC1CE0101963C01F6019381F70109
:1004400093FD859193FF81917F01882309F4BAC1BF
:10045000853239F493FD859193FF81917F01853237
:1004600029F4B60190E00E944605E7CF912C212C9B
:10047000312CFFE1F315D8F08B3279F038F480326B
:1004800079F08332A1F4232D20611DC08D3261F0FB
:10049000803369F4232D216016C0832D8260382EAD
:1004A000E32DE4603E2E2AC0F32DF8601DC037FC1A
:1004B0002DC020ED280F2A3040F08E32B9F436FCE2
:1004C00081C1232D2064322E19C036FE06C08AE079
:1004D000989E200D1124922E11C0EAE02E9E200D30
:1004E0001124222EF32DF0623F2E08C08C3621F409
:1004F000832D8068382E02C0883641F4F70193FDC1
:10050000859193FF81917F018111B3CF982F9F7DBA
:100510009554933028F40C5F1F4F9FE399830DC0CF
:10052000833631F0833771F0833509F059C021C02B
:10053000F801808189830E5F1F4F88248394912C5A
:10054000530113C02801F2E04F0E511CF801A080A6
:10055000B18036FE03C0692D70E002C06FEF7FEFFF
:10056000C5010E943B054C018201F32DFF773F2E10
:1005700016C0280122E0420E511CF801A080B18073
:1005800036FE03C0692D70E002C06FEF7FEFC5013A
:100590000E9429054C01F32DF0683F2E820133FCA7
:1005A0001BC0822D90E088169906B0F4B60180E257
:1005B00090E00E9446052A94F4CFF50137FC85911E
:1005C00037FE81915F01B60190E00E94460521103F
:1005D0002A9421E0821A91088114910471F7E8C0ED
:1005E000843611F0893641F5F80137FE07C0608185
:1005F0007181828193810C5F1F4F08C0608171817E
:10060000072E000C880B990B0E5F1F4FF32DFF7602
:100610003F2E97FF09C090958095709561957F4F0B
:100620008F4F9F4FF0683F2E2AE030E0A3010E94D9
:100630008205882E861845C0853731F4232D2F7EFC
:10064000B22E2AE030E025C0932D997FB92E8F3647
:10065000C1F018F4883579F0B5C0803719F08837C3
:1006600021F0B0C0E92FE061BE2EB4FE0DC0FB2D1D
:10067000F460BF2E09C034FE0AC0292F2660B22EB6
:1006800006C028E030E005C020E130E002C020E1F3
:1006900032E0F801B7FE07C06081718182819381E9
:1006A0000C5F1F4F06C06081718180E090E00E5F9B
:1006B0001F4FA3010E948205882E8618FB2DFF770D
:1006C0003F2E36FE0DC0232D2E7FA22E891458F406
:1006D00034FE0BC032FC09C0832D8E7EA82E05C0CF
:1006E000B82CA32C03C0B82C01C0B92CA4FE0FC099
:1006F000FE01E80DF11D8081803321F49A2D997E51
:10070000A92E09C0A2FE06C0B394B39404C08A2DDA
:10071000867809F0B394A3FC11C0A0FE06C0B21401
:1007200088F4280C922C9B180EC0B21460F4B60109
:1007300080E290E00E944605B394F7CFB21418F41B
:100740002B1802C0982C212CA4FE10C0B60180E307
:1007500090E00E944605A2FE17C0A1FC03C088E7F6
:1007600090E002C088E590E0B6010CC08A2D867842
:1007700059F0A1FE02C08BE201C080E2A7FC8DE22D
:10078000B60190E00E944605891438F4B60180E372
:1007900090E00E9446059A94F7CF8A94F301E80D01
:1007A000F11D8081B60190E00E9446058110F5CFD1
:1007B000222009F442CEB60180E290E00E94460574
:1007C0002A94F6CFF6018681978102C08FEF9FEFC2
:1007D0002B96E2E10C942E060F931F93CF93DF9399
:1007E000869F8001879F100D969F100D1124C801D0
:1007F0000E940804EC01009729F0A80160E070E075
:100800000E943405CE01DF91CF911F910F91089581
:100810000F931F93CF93DF938230910510F482E002
:1008200090E0E091C801F091C90120E030E0A0E043
:10083000B0E0309719F1408151810281138148174E
:100840005907C8F08417950769F4109731F012968C
:100850000C93129713961C9327C00093C801109312
:10086000C90122C02115310519F04217530718F4A8
:100870009A01BD01EF01DF01F801DBCF2115310540
:10088000F9F0281B390B2430310580F48A819B81D3
:100890006115710521F0FB019383828304C090935D
:1008A000C9018093C801FE01329644C0FE01E20FE7
:1008B000F31F8193919322503109398328833AC0E1
:1008C0002091C6013091C701232B41F420910601EC
:1008D000309107013093C7012093C6012091040194
:1008E000309105012115310541F42DB73EB74091F6
:1008F000080150910901241B350BE091C601F091CC
:10090000C701E217F307A0F42E1B3F0B2817390786
:1009100078F0AC014E5F5F4F2417350748F04E0F5B
:100920005F1F5093C7014093C6018193919302C00A
:10093000E0E0F0E0CF01DF91CF911F910F9108959A
:10094000CF93DF93009709F481C0FC0132971382A3
:100950001282A091C801B091C901109781F4208141
:100960003181820F931F2091C6013091C701281752
:10097000390751F5F093C701E093C60167C0ED0157
:1009800020E030E0CE17DF0740F44A815B819E0112
:1009900041155105F1F0EA01F5CFD383C2834081BF
:1009A0005181840F951FC817D90759F488819981FF
:1009B000840F951F0296918380838A819B81938304
:1009C00082832115310529F4F093C901E093C80110
:1009D0003DC0E901FB83EA8349915991C40FD51FBA
:1009E000EC17FD0761F480819181840F951F0296B9
:1009F000E90199838883828193819B838A83E0E0E4
:100A0000F0E012968D919C911397009719F0FD01DB
:100A1000DC01F7CF8D919C9111979D012E5F3F4F87
:100A2000820F931F2091C6013091C7012817390703
:100A300069F4309729F41092C9011092C80102C0DC
:100A400013821282B093C701A093C601DF91CF91A8
:100A50000895FC010590615070400110D8F7809511
:100A600090958E0F9F1F0895DC0101C06D9341503A
:100A70005040E0F70895FC01615070400190011072
:100A8000D8F7809590958E0F9F1F08950F931F9311
:100A9000CF93DF93FB01238121FD03C08FEF9FEFF5
:100AA0002CC022FF16C04681578124813581421710
:100AB000530744F4A081B1819D012F5F3F4F3183E3
:100AC00020838C93268137812F5F3F4F3783268386
:100AD00014C08B01EC01FB010084F185E02D099528
:100AE000892BE1F6D80116968D919C911797019666
:100AF00017969C938E931697CE01DF91CF911F91FD
:100B00000F910895FA01AA27283051F1203181F17F
:100B1000E8946F936E7F6E5F7F4F8F4F9F4FAF4F05
:100B2000B1E03ED0B4E03CD0670F781F891F9A1F18
:100B3000A11D680F791F8A1F911DA11D6A0F711DCC
:100B4000811D911DA11D20D009F468943F912AE0D8
:100B5000269F11243019305D3193DEF6CF010895C0
:100B6000462F4770405D4193B3E00FD0C9F7F6CFF1
:100B7000462F4F70405D4A3318F0495D31FD4052B9
:100B8000419302D0A9F7EACFB4E0A695979587954F
:100B900077956795BA95C9F700976105710508952E
:100BA0009B01AC010A2E06945795479537952795DA
:100BB000BA95C9F7620F731F841F951FA01D089572
:100BC000052E97FB1EF400940E94F70557FD07D0F1
:100BD0000E94490607FC03D04EF40C94F70550958B
:100BE0004095309521953F4F4F4F5F4F0895909519
:100BF0008095709561957F4F8F4F9F4F08950E940C
:100C00003F01A59F900DB49F900DA49F800D911D55
:100C100011240895B7FF0C94FF050E94FF05821B65
:100C2000930B08952F923F924F925F926F927F9213
:100C30008F929F92AF92BF92CF92DF92EF92FF92EC
:100C40000F931F93CF93DF93CDB7DEB7CA1BDB0B98
:100C50000FB6F894DEBF0FBECDBF09942A8839883D
:100C600048885F846E847D848C849B84AA84B98444
:100C7000C884DF80EE80FD800C811B81AA81B98150
:100C8000CE0FD11D0FB6F894DEBF0FBECDBFED0164
:100C90000895A1E21A2EAA1BBB1BFD010DC0AA1FBD
:100CA000BB1FEE1FFF1FA217B307E407F50720F0D5
:100CB000A21BB30BE40BF50B661F771F881F991F50
:100CC0001A9469F760957095809590959B01AC0199
:0A0CD000BD01CF010895F894FFCF95
:100CDA00010000000000CA012000537461727469A7
:100CEA006E67205352414D20746573742E2E2E0A5E
:100CFA000A0A0A0A0A0A0A0A0A0D00577269746578
:100D0A00207068617365206572726F723A20657827
:100D1A00745F72616D5B2534645D203D202530323D
:100D2A0058202873686F756C6420626520253032FC
:100D3A0058290A0D005352414D207465737420637B
:100D4A006F6D706C657465642077697468200A0D2C
:100D5A00253464206572726F727320696E2077720F
:100D6A0069746520706861736520616E64200A0D7C
:100D7A00253464206572726F727320696E20726501
:100D8A007472696576616C2070686173650A0D001A
:00000001FF
