:100000000C9460030C947D030C9415060C947D03F2
:100010000C947D030C947D030C947D030C947D0360
:100020000C947D030C947D030C947D030C947D0350
:100030000C947D030C947D030C947D030C947D0340
:100040000C947D030C94F30C0C947D030C947D03B1
:100050000C947D030C947D030C947D030C947D0320
:100060000C947D030C947D030C947D030C947D0310
:1000700000000000005C00000C000C007C287C28C4
:1000800058DC68002410480028542840000C000068
:10009000007884008478000054385400107C1000EC
:1000A00080400000101010000040000060100C00A4
:1000B00038543800487C40004864580044542C00B0
:1000C0001C107C005C5424003854240064140C0080
:1000D00068542C0048543800004800008048000054
:1000E0001028440028282800442810000454080040
:1000F00038445C00781478007C5428003844280088
:100100007C4438007C5444007C140400384474005F
:100110007C107C00447C440020403C007C106C003F
:100120007C4040007C187C0078103C00384438004B
:100130007C1408003844B8007C146800485424003B
:10014000047C04007C407C003C603C007C307C00F3
:100150006C106C000C700C0064544C00007C44006B
:100160000C106000447C00000804080080808000BF
:1001700000040800304878007C48300030484800CF
:1001800030487C00306850001078140090A8780047
:100190007C08700050744000808074007C106800FF
:1001A000447C4000781078007808700030483000B7
:1001B000F82810003048F80078100800505828003F
:1001C000083C4800384078003840380078207800F3
:1001D0004830480098A0780048685800107884009B
:1001E000007C00008478100008040804000000006F
:1001F0000000005F00000007000700147F147F1458
:10020000242A7F2A1223130864623649552250009B
:1002100005030000001C2241000041221C00082AA6
:100220001C2A0808083E080800503000000808088A
:100230000808006060000020100804023E51494593
:100240003E00427F400042615149462141454B31C9
:100250001814127F1027454545393C4A4949300159
:10026000710905033649494936064949291E0036B0
:100270003600000056360000000814224114141401
:10028000141441221408000201510906324979412F
:100290003E7E1111117E7F494949363E414141223E
:1002A0007F4141221C7F494949417F090901013EA3
:1002B000414151327F0808087F00417F41002040C2
:1002C000413F017F081422417F404040407F0204AB
:1002D000027F7F0408107F3E4141413E7F090909AA
:1002E000063E4151215E7F09192946464949493157
:1002F00001017F01013F4040403F1F2040201F7F00
:100300002018207F631408146303047804036151E8
:1003100049454300007F4141020408102041417FCC
:100320000000040201020440404040400001020479
:100330000020545454787F4844443838444444207E
:10034000384444487F3854545418087E0901020840
:100350001454543C7F0804047800447D400020403D
:10036000443D00007F10284400417F40007C041879
:1003700004787C0804047838444444387C14141409
:1003800008081414187C7C080404084854545420A9
:10039000043F4440203C4040207C1C2040201C3C2A
:1003A0004030403C44281028440C5050503C446499
:1003B000544C44000836410000007F0000004136E4
:1003C000080002010302010000000000000000001C
:1003D000065F5F0600000000070700070700001423
:1003E0007F7F147F7F1400242E6B6B3A120000462F
:1003F0006630180C666200307A4F5D377A48000428
:1004000007030000000000001C3E634100000000E4
:1004100041633E1C000000082A3E1C1C3E2A0808BE
:10042000083E3E0808000000A0E060000000000850
:100430000808080808000000006060000000006074
:1004400030180C060301003E7F594D7F3E000042EC
:10045000427F7F40400000627359496F660000226E
:100460006349497F360000181C16137F7F10002750
:100470006745457D3900003C7E4B497930000003DB
:100480006371190F070000367F49497F3600000667
:100490004F49693F1E000000006C6C000000000026
:1004A000A0EC6C00000000081C3663410000001442
:1004B00014141414140000004163361C08000002D8
:1004C0000351590F0600003E7F415D5D1F1E007CF9
:1004D0007E13137E7C0000417F7F49497F36001CDC
:1004E0003E634141632200417F7F41637F1C0041A5
:1004F0007F7F495D416300417F7F491D0103001CEF
:100500003E6341517372007F7F08087F7F000000C7
:10051000417F7F41000000307040417F3F0100413A
:100520007F7F081C776300417F7F41406070007FC0
:100530007F060C067F7F007F7F060C187F7F001CE4
:100540003E6341633E1C00417F7F49090F06001E48
:100550003F21717F5E0000417F7F19396F46002681
:10056000674D597B32000003417F7F410300007FCC
:100570007F40407F7F00001F3F60603F1F00007F83
:100580007F3018307F7F0063771C081C776300077B
:100590004F78784F0700006773594D47637100002B
:1005A0007F7F41410000000103060C18306000000D
:1005B00041417F7F000000080C0603060C08008004
:1005C000808080808080800000030704000000207D
:1005D0007454543C784000413F7F44447C38003898
:1005E0007C44446C280000307848493F7F40003804
:1005F0007C54545C180000487E7F49030200009838
:10060000BCA4A4F87C0400417F7F08047C7800002F
:10061000447D7D4000000040C484FD7D0000004119
:100620007F7F10386C440000417F7F400000007CD9
:100630007C0C180C7C78007C7C04047C78000038EE
:100640007C44447C38000084FCF8A4243C18001846
:100650003C24A4F8FC8400447C78441C1800004826
:100660005C54547424000000043E7F442400003C89
:100670007C40403C7C40001C3C60603C1C00003CDA
:100680007C6030607C3C00446C3810386C44009CCA
:10069000BCA0A0FC7C00004C64745C4C64000008AE
:1006A000083E7741410000000000777700000041DC
:1006B00041773E0808000002030103020301000025
:1006C00011241FBECFEFD4E0DEBFCDBF14E0A0E009
:1006D000B1E0E0E4FAE202C005900D92A232B10767
:1006E000D9F724E0A2E2B4E001C01D92A236B2071D
:1006F000E1F70E943B0D0C941E150C94600D8D9A31
:1007000012BE78940C94EC0CE0910A01F0910B016C
:1007100081E8808380E18A95F1F700C0E0910A01C9
:10072000F0910B0180810895E0910A01F0910B0195
:1007300080E8808380E18A95F1F700C0E0910A01AA
:10074000F0910B0180810895E0910A01F0910B0175
:1007500082E8808380E18A95F1F700C0E0910A0188
:10076000F0910B0180810895E0910A01F0910B0155
:1007700083E8808380E18A95F1F700C0E0910A0167
:10078000F0910B01808108950F931F93CF93DF9316
:100790008C3639F08237F9F402E310E0C0E0D0E0A3
:1007A0000CC002E310E0C0E0D0E00E94A403C80F38
:1007B000D11D01501109C9F707C00E94B403C80F29
:1007C000D11D01501109C9F7CE0162E370E00E940A
:1007D000B10F862F01C080E0DF91CF911F910F9163
:1007E00008950F931F93CF93DF938C3651F0823788
:1007F00041F582E70E94C403682F70E080E090E03A
:1008000015C002E310E0C0E0D0E00E94A403C80FCE
:10081000D11D01501109C9F7CE0162E370E00E94B9
:10082000B10F7727072E000C880B990B0E94B80E8A
:1008300023E333E343E250E40E940E0E0E94870E4E
:1008400001C060E0862FDF91CF911F910F91089535
:10085000CF938EEB80932C0484E680932D048AEA58
:1008600080932E0480932F04C2E30E94840390910E
:100870002C04891710F480932C0490912D04981760
:1008800010F480932D04C15081F780912C048E5177
:100890008093310480912D04865F80933004C2E3FD
:1008A0000E94940390912E04891710F480932E04D3
:1008B00090912F04981710F480932F04C15081F762
:1008C00080912E0488528093330480912F04865F98
:1008D00080933204CF9108958F929F92AF92BF92EE
:1008E000FF920F931F93CF93DF93D82F0E9484031F
:1008F000182F0E949403C82FD83721F0D93709F454
:100900005EC0B7C000913004011758F5C02FD0E089
:10091000612F70E06C1B7D0B072E000C880B990B70
:100920000E94B80E20E030E048EC52E40E94440FF0
:100930004B015C01BE01DD0F880B990B0E94B80EC4
:100940009B01AC0160E070E08FE793E40E94A10D91
:100950009B01AC01C501B4010E940E0E0E94800EE5
:1009600001C060E0F09031041F1510F5CF2DD0E0EC
:10097000612F70E06C1B7D0B072E000C880B990B10
:100980000E94B80E20E030E048EC52E40E94440F90
:100990004B015C01BE01DD0F880B990B0E94B80E64
:1009A0009B01AC01C501B4010E940E0E0E94800E95
:1009B000101708F05FC0F11608F45BC05BC0D0915F
:1009C0003204D81758F50D2F10E0682F70E0601B27
:1009D000710B072E000C880B990B0E94B80E20E0BB
:1009E00030E048EC52E40E94440F4B015C01B80136
:1009F000110F880B990B0E94B80E9B01AC0160E0AF
:100A000070E08FE793E40E94A10D9B01AC01C5014A
:100A1000B4010E940E0E0E94800E01C060E0F090B2
:100A20003304CF1510F50F2D10E06C2F70E0601B14
:100A3000710B072E000C880B990B0E94B80E20E05A
:100A400030E048EC52E40E94440F4B015C01B801D5
:100A5000110F880B990B0E94B80E9B01AC01C501C8
:100A6000B4010E940E0E0E94800ECD1718F4FC16E1
:100A700008F460E0862FDF91CF911F910F91FF90D6
:100A8000BF90AF909F908F900895CF9388E70E947A
:100A90006C04C82F89E70E946C04982FC63A4CF06A
:100AA000CB354CF4863A4CF081E09B353CF480E049
:100AB00005C083E003C084E001C082E0CF910895C7
:100AC000CF93DF9388E70E946C04C4E3D4E088836B
:100AD00089E70E946C04898382E70E94C403682F1F
:100AE00070E080E090E00E94B80E23E333E343E23D
:100AF00050E40E940E0E0E94870E6B838CE60E94CB
:100B0000F1038A830E9445058C8386B380958170AA
:100B10008D8386B3869581708E8386B382FB88270A
:100B200080F98F83DF91CF9108950C94CA060F93BB
:100B30001F93CF938C01FC01608166956695669545
:100B400081E30E945E06F80160816295660F607E17
:100B500082E30E945E06F801618185E30E945E06E1
:100B6000C0E0F8018181C81750F4F801EC0FF11DC5
:100B7000628186E38C0F0E945E06CF5FF2CF80E336
:100B8000CF911F910F910C94A8060F931F93CF93B1
:100B90008C0181E60E947106C82F82E60E947106D0
:100BA00082958695877098E0C99F800D1124F80181
:100BB000808385E60E947106F8018183C0E0F80118
:100BC0008181C81750F486E68C0F0E947106F801E7
:100BD000EC0FF11D8283CF5FF2CF40E063E08CE247
:100BE000CF911F910F910C948406EBE4F4E08AE01E
:100BF000808383E08183A4E3B4E08C9182831396A5
:100C00008C911397838315968C918483CF010C94D8
:100C10009705EBE4F4E088E2808381E081838091B2
:100C20003E048283CF010C9497051F920F920FB65A
:100C30000F9211242F933F934F935F936F937F9362
:100C40008F939F93AF93BF93EF93FF938FE394E0C2
:100C50000E94C50580913F048C3349F48091410482
:100C600090E090934A048093490410923D048FEDE4
:100C700091E09F938F930E9477100F900F90FF91B8
:100C8000EF91BF91AF919F918F917F916F915F9104
:100C90004F913F912F910F900FBE0F901F9018957D
:100CA0000E940B0780EC0E9418070E940D078FEF2F
:100CB0009FE20197F1F700C000000895CF93DF9302
:100CC000D82FC62F0E940B0782E00E9418078D2F95
:100CD0000E9418078C2F0E941807DF91CF910C9467
:100CE0000D07CF93C82F0E940B0783E00E941807BF
:100CF0008C2F0E94180780E00E941807CFB10E9435
:100D00000D078C2FCF9108951F93CF93DF93182F4A
:100D1000D62FC42F0E940B0785E00E941807812F51
:100D20000E9418078D2F0E9418078C2F0E94180709
:100D3000DF91CF911F910C940D07682F8FE00E94D7
:100D40005E068CEC94E00197F1F700C00000089576
:100D5000CF93C82F0E940B07C13359F020F4C03342
:100D600071F481E807C0C23341F0C13641F487E82D
:100D700001C082E80E9418070AC084E8FBCF86EE13
:100D800091E09F938F930E9477100F900F90CF91D7
:100D90000C940D070E940F070E9450068EE00E94DF
:100DA0007106807E803841F084E192E09F938F93BA
:100DB0000E9477100F900F9061E08BE20E945E0618
:100DC0008BB780688BBF85B7886085BF61E88AE292
:100DD0000E945E066DEA89E20E945E0665E088E296
:100DE0000E945E0686E392E09F938F930E947710A5
:100DF00080E00E949D068EE00E947106807E0F902A
:100E00000F9041F082E692E09F938F930E947710BB
:100E10000F900F90089518BA0895C49A089587B353
:100E2000806B87BBBE988DB181658DB90C940D0721
:100E30008FB9779BFECF0895FC0182810E94DF0B62
:100E400088E10E94C20B88E10E94C20B8EE70E94DB
:100E5000C20B8CE30E94C20B88E10C94C20BCF93AF
:100E6000DF93EC0160E00E941C0760E28A810E942F
:100E7000DF0B65E088819981DF91CF910C94CF0BD6
:100E8000CF92DF92EF92FF920F931F93CF93DF9356
:100E900000D000D0CDB7DEB78C010E94F80B21E066
:100EA0000C33120761F460E183E00E94DF0B68E01D
:100EB00080913C0190913D010E94CF0BC7C081E021
:100EC0000C30180709F06CC060E280E00E94DF0B74
:100ED00065E080910C0190910D010E94CF0B8E0175
:100EE0000F5F1F4F84E0F80111928A95E9F760E2E5
:100EF00082E00E94DF0B80915504813059F030F080
:100F0000823069F465E084E992E007C065E084E836
:100F100092E003C065E08DE892E00E94CF0B8091E3
:100F20005504E091D901F091DA0124E0829FE00DAF
:100F3000F11D112480812091490430914A0490E0F0
:100F4000821793070CF420836FE384E00E94DF0B89
:100F500080915504E091D901F091DA0194E0899FE4
:100F6000E00DF11D112480811F928F938BE992E097
:100F70009F938F931F930F930E948D101F930F9336
:100F80008EE992E09F938F930E94771065E0C801ED
:100F90000E94CF0B0FB6F894DEBF0FBECDBF56C078
:100FA000F80180819181892B51F060E280E00E94FC
:100FB000DF0B65E0F801808191810E94CF0BF80181
:100FC000C280D380F801E680F780CE14DF0479F088
:100FD00060E2F60182810E94DF0B65E0F60180810C
:100FE00091810E94CF0BF601C580D680EBCF809116
:100FF000560490915704F1E08C349F0779F021E07A
:101000008434920759F0E1E08C329E0739F0F1E028
:1010100084329F0719F08C51914061F4C7010E94FE
:101020002F07F701E580F680F80182819381E816A9
:10103000F90661F060E2F70182810E94DF0B65E052
:10104000F701808191810E94CF0BEBCF0F900F9021
:101050000F900F90DF91CF911F910F91FF90EF9024
:10106000DF90CF9008955F926F927F928F929F92C0
:10107000AF92BF92CF92DF92EF92FF920F931F93A6
:10108000CF93DF93CDB7DEB763970FB6F894DEBF8B
:101090000FBECDBF5C010E94F80BD5018D919C91D4
:1010A000892B51F060E280E00E94DF0B65E0F501E2
:1010B000808191810E94CF0BD5011296CD90DC905A
:1010C0001397712C8E010F5F1F4FFE0170967F01E9
:1010D0004FE0642E54E0552E6BE9862E62E0962E8A
:1010E000F50124813581872D90E0E091D901F091BF
:1010F000DA01C216D306C9F1D801262D1D922A9510
:10110000E9F7D701252D1D922A95E9F7880F991F38
:10111000880F991FE80FF91F80811F928F939F926C
:101120008F92FF92EF920E948D10D6016D917C916B
:10113000C8010E942110B701C8010E94211060E27D
:10114000F60182810E94DF0B65E0C8010E94CF0B8F
:10115000D6011596CD90DC90169773940F900F9052
:101160000F900F900F900F90BBCF2FE0D8011D92E2
:101170002A95E9F724E0D7011D922A95E9F7880F0F
:10118000991F880F991FE80FF91F80811F928F9375
:101190008BE992E09F938F93FF92EF920E948D10C4
:1011A000F60160817181C8010E942110B701C80158
:1011B0000E94211060E2D60112968C910E94DF0BF2
:1011C00065E0C8010E94CF0B0F900F900F900F9019
:1011D0000F900F9063960FB6F894DEBF0FBECDBF91
:1011E000DF91CF911F910F91FF90EF90DF90CF9003
:1011F000BF90AF909F908F907F906F905F90089579
:1012000024E08232920709F1A1E084339A07E9F0E1
:1012100020913804213041F4DC011696ED91FC91C7
:101220001797238134810BC020913804223069F450
:10123000DC011696ED91FC91179725813681179662
:101240003C932E9316970C9440070895CF93C0912A
:101250003A04CC2309F44FC0C0913B04CC2309F4D9
:101260004AC0809156049091570421E08C34920733
:1012700009F440C021E08434920781F021E08433F6
:10128000920761F021E08C32920741F021E0843135
:10129000920721F021E08C30920719F48CE491E060
:1012A0000FC021E08C33920791F48CE380934B04C0
:1012B00010924C048BE494E00E9497058CE091E03E
:1012C00090935704809356040E94400714C021E075
:1012D0008432920739F024E08232920719F08C515F
:1012E000914041F48CE291E090935704809356042E
:1012F0000E944007C0E08C2FCF9108958EE180932B
:101300004B0481E080934C0480913E0480934D0413
:101310008BE494E00E9497052FEF8FE797E0215030
:1013200080409040E1F700C0000080913D04882398
:1013300021F00E942609882351F010923D048CE090
:1013400091E090935704809356040C944007809149
:101350002B04882351F30E94F50510922B04E5CF4E
:101360000E94F80B86E20E94BC0B80E00E94BC0B3E
:1013700080E00E94BC0B86E00E94BC0B87E00E94CC
:10138000BC0B80E00E94BC0B8FEF0E94BC0B6FE295
:1013900083E00E94DF0B68E083EA92E00E94CF0BBB
:1013A0006FE185E00E94DF0B68E088EA92E00E942E
:1013B000CF0B8FE20E94BC0B20E080E892E5215029
:1013C00080409040E1F78EE20E94BC0B2FEF8FEF40
:1013D0009DE1215080409040E1F700C00000089559
:1013E000CF93DF93A2EDB1E02DEB31E014963C9367
:1013F0002E9313978BEC91E016969C938E931597F2
:10140000EC01BC83AB83C4ECD1E0FC01D683C58383
:101410009C838B833E832D83F901D483C383B6835E
:10142000A583A6EBB1E0E8EAF1E01496FC93EE9315
:101430001397CFEAD1E01696DC93CE931597BC8331
:10144000AB83FE83ED83D483C383B683A583A1EAF4
:10145000B1E0E3E9F1E01496FC93EE931397CAE947
:10146000D1E01696DC93CE931597BC83AB83FE83B5
:10147000ED83D483C383B683A583ACE8B1E0EEE704
:10148000F1E01496FC93EE931397C5E8D1E016961D
:10149000DC93CE931597BC83AB83FE83ED83D4831B
:1014A000C383B683A583A7E7B1E0E9E6F1E014962C
:1014B000FC93EE931397C0E7D1E01696DC93CE939E
:1014C0001597BC83AB83FE83ED83D483C383B6833C
:1014D000A583A2E6B1E0E4E5F1E01496FC93EE9377
:1014E0001397CBE5D1E01696DC93CE931597BC838A
:1014F000AB83FE83ED83D483C383B683A5830E942D
:10150000B0098CE491E09093570480935604DF91E6
:10151000CF910C944007CF93DF93809139048823B7
:1015200009F4D0C0C0915604D091570481E0CC3466
:10153000D807F9F4E0915201F09153018281823091
:1015400071F028F48111BEC084E491E0B3C084300E
:1015500069F0863009F0B6C084E191E0ABC084E365
:1015600091E090935704809356043AC08CE291E046
:10157000A1C081E0C434D80741F5E0914A01F0915F
:101580004B018281843039F0863039F0823041F469
:101590001092550405C081E001C082E0809355049B
:1015A0008CE391E0909357048093560481E08093FC
:1015B0003D0410924A04109249048CE391E00E9489
:1015C0004007DF91CF910C947E0981E0CC33D8079E
:1015D00009F478C081E0C433D80731F484E391E0A2
:1015E000DF91CF910C94330881E0CC32D80709F514
:1015F000E0913201F09133018281843041F08630F4
:10160000A9F0823009F05EC084E291E053C082E22A
:1016100094E090935704809356040E94B009D093AD
:101620005704C09356048CE291E048C08CE191E0ED
:1016300041C081E0C432D807B9F4E0912A01F091A9
:101640002B018281843039F0863039F0823041F4C8
:1016500010923E0405C081E001C082E080933E0408
:10166000DF91CF910C94090681E0CC31D807E9F4E1
:10167000E0912201F09123018281843049F086308B
:1016800061F08230F9F481E80E94BC0B80E009C06F
:1016900081E80E94BC0B80E804C081E80E94BC0B7A
:1016A0008FEFDF91CF910C94BC0BCC50D14051F413
:1016B0008CE491E09093570480935604DF91CF918E
:1016C0000C944007DF91CF91089580912B048823DB
:1016D00061F080915604909157040E9400090E9485
:1016E00026090E948B0A10922B0408950F931F93D2
:1016F000CF93DF93482F50E0DA01AA0FBB1FAA0F48
:10170000BB1F25E0829FC001112423E0440F551F19
:101710002A95E1F720E030E0C62FD0E0805A910909
:101720005A95A058B1092C173D070CF5653051F0BA
:10173000683071F06430C1F4FD01E20FF31FE0592D
:10174000FF4F0BC0FC01E20FF31FE451FE4F05C039
:10175000FA01E20FF31FE953FC4F74910091DB0192
:101760001091DC01F80170832F5F3F4FDCCFDF91D8
:10177000CF911F910F910895E091DD01F091DE016D
:1017800080830895E091DB01F091DC01808308956E
:1017900090EE980F9F3510F40C94760B08951F93DC
:1017A000CF93DF93162FEC018991882321F0612FCD
:1017B0000E94C80BF9CFDF91CF911F910895806BE4
:1017C000E091DD01F091DE018083862F8F70E09142
:1017D000DD01F091DE01808362956F706061E091C0
:1017E000DD01F091DE016083089560E00C94DF0B71
:1017F0000F931F93CF93C0E08C2F0E94F50B00E155
:1018000010E068E080E20E94760B01501109C9F7F0
:10181000CF5FC83089F780E0CF911F910F910C9472
:10182000F50BE091DD01F091DE018EEA8083E0911D
:10183000DD01F091DE0181EA8083E091DD01F0912C
:10184000DE018AED8083E091DD01F091DE0182E12D
:101850008083E091DD01F091DE0188EC8083E091EE
:10186000DD01F091DE0188EA8083E091DD01F091F5
:10187000DE018FE38083E091DD01F091DE0185EDF3
:101880008083E091DD01F091DE0180E88083E091CA
:10189000DD01F091DE0181E88083E091DD01F091CE
:1018A000DE018FEF8083E091DD01F091DE0189EDB3
:1018B0008083E091DD01F091DE0181E28083E0919F
:1018C000DD01F091DE018BED8083E091DD01F0918F
:1018D000DE0180E38083E091DD01F091DE018DEA9D
:1018E0008083E091DD01F091DE011082E091DD0165
:1018F000F091DE011082E091DD01F091DE0180E1E6
:101900008083E091DD01F091DE0180E28083E0914F
:10191000DD01F091DE0182E08083E091DD01F09154
:10192000DE0180EB8083E091DD01F091DE0184EA4D
:101930008083E091DD01F091DE0186EA8083E09111
:10194000DD01F091DE018FEA80830895FF920F930D
:101950001F93CF93DF9384E993E09F938F930E942B
:1019600077100E9411100E9416100F900F90C0E087
:10197000D0E000E010E00E941110F82EBE010E949D
:10198000330DCE010E94370DF81611F00F5F1F4F77
:101990002196C11588E0D80771F71F921F921F93F7
:1019A0000F9385EB93E09F938F930E9477100F9096
:1019B0000F900F900F900F900F90DF91CF911F918C
:1019C0000F91FF9008958FB588648FBD8EB58960A3
:1019D0008EBD1BBC1ABC089583B7856083BF89B7D1
:1019E000826089BF08951F920F920FB60F92112443
:1019F0002F933F934F935F936F937F938F939F9317
:101A0000AF93BF93EF93FF9388B7826088BF8091B5
:101A10002A048F5F80932A0480912A04823059F42B
:101A200010922A0498B388E0892788BB0E94600539
:101A300081E080932B04FF91EF91BF91AF919F9133
:101A40008F917F916F915F914F913F912F910F9067
:101A50000FBE0F901F90189585B7806885BF80B71F
:101A6000806280BF0895FB01F85E80830895985ED0
:101A7000FC01808108958FE190E00E94950D0E9405
:101A80002C0D0E94A60C0E94E30C0E947F030E9472
:101A9000110C0E94F80B0E9428040E949505BB9A25
:101AA0000E94F009E091D901F091DA011082E091F1
:101AB000D901F091DA01148210860E94650BFDCFE6
:101AC0001F920F920FB60F9211242F933F934F93B3
:101AD0005F936F937F938F939F93AF93BF93EF9396
:101AE000FF9380E194E09F938F930E9477100F9073
:101AF0000F90FF91EF91BF91AF919F918F917F9147
:101B00006F915F914F913F912F910F900FBE0F906A
:101B10001F9018955D9BFECF8CB980E090E00895F2
:101B20005F9BFECF8CB190E0089590BD89B988E1AC
:101B30008AB986E880BD60E97DE08AE89DE00C9482
:101B40002C105058BB27AA270E94B90D0C940A0FDD
:101B50000E94FC0E38F00E94030F20F039F49F3FE2
:101B600019F426F40C94F90E0EF4E095E7FB0C94AE
:101B7000F30EE92F0E941B0F58F3BA176207730781
:101B80008407950720F079F4A6F50C943D0F0EF428
:101B9000E0950B2EBA2FA02D0B01B90190010C017D
:101BA000CA01A0011124FF27591B99F0593F50F495
:101BB000503E68F11A16F040A22F232F342F4427ED
:101BC000585FF3CF469537952795A795F0405395E5
:101BD000C9F77EF41F16BA0B620B730B840BBAF0B5
:101BE0009150A1F0FF0FBB1F661F771F881FC2F720
:101BF0000EC0BA0F621F731F841F48F48795779534
:101C00006795B795F7959E3F08F0B0CF9395880FED
:101C100008F09927EE0F9795879508950E94220E58
:101C20000C940A0F0E94030F58F00E94FC0E40F023
:101C300029F45F3F29F00C94F30E51110C943E0FE0
:101C40000C94F90E0E941B0F68F39923B1F35523EE
:101C500091F3951B550BBB27AA27621773078407BF
:101C600038F09F5F5F4F220F331F441FAA1FA9F355
:101C700035D00E2E3AF0E0E832D091505040E69543
:101C8000001CCAF72BD0FE2F29D0660F771F881FA4
:101C9000BB1F261737074807AB07B0E809F0BB0B97
:101CA000802DBF01FF2793585F4F3AF09E3F5105AB
:101CB00078F00C94F30E0C943E0F5F3FE4F3983EE3
:101CC000D4F3869577956795B795F7959F5FC9F794
:101CD000880F911D9695879597F90895E1E0660F15
:101CE000771F881FBB1F621773078407BA0720F08E
:101CF000621B730B840BBA0BEE1F88F7E0950895F7
:101D00000E94870E6894B1110C943E0F08950E94B2
:101D1000230F88F09F5798F0B92F9927B751B0F04B
:101D2000E1F0660F771F881F991F1AF0BA95C9F75F
:101D300014C0B13091F00E943D0FB1E008950C94B1
:101D40003D0F672F782F8827B85F39F0B93FCCF364
:101D5000869577956795B395D9F73EF490958095DC
:101D6000709561957F4F8F4F9F4F0895E89409C0FC
:101D700097FB3EF490958095709561957F4F8F4FBE
:101D80009F4F9923A9F0F92F96E9BB279395F695D4
:101D9000879577956795B795F111F8CFFAF4BB0F52
:101DA00011F460FF1BC06F5F7F4F8F4F9F4F16C0B6
:101DB000882311F096E911C0772321F09EE8872F40
:101DC000762F05C0662371F096E8862F70E060E0FC
:101DD0002AF09A95660F771F881FDAF7880F969575
:101DE000879597F9089597F99F6780E870E060E01C
:101DF00008959FEF80EC089500240A9416161706A4
:101E000018060906089500240A94121613061406EB
:101E100005060895092E0394000C11F4882352F04E
:101E2000BB0F40F4BF2B11F460FF04C06F5F7F4F06
:101E30008F4F9F4F089557FD9058440F551F59F0ED
:101E40005F3F71F04795880F97FB991F61F09F3FA7
:101E500079F087950895121613061406551FF2CFD0
:101E60004695F1DF08C0161617061806991FF1CF20
:101E700086957105610508940895E894BB27662747
:101E80007727CB0197F908950E94570F0C940A0FFA
:101E90000E94FC0E38F00E94030F20F0952311F0F1
:101EA0000C94F30E0C94F90E11240C943E0F0E9426
:101EB0001B0F70F3959FC1F3950F50E0551F629F64
:101EC000F001729FBB27F00DB11D639FAA27F00D93
:101ED000B11DAA1F649F6627B00DA11D661F829FBA
:101EE0002227B00DA11D621F739FB00DA11D621F9F
:101EF000839FA00D611D221F749F3327A00D611DBC
:101F0000231F849F600D211D822F762F6A2F11249D
:101F10009F5750409AF0F1F088234AF0EE0FFF1FD0
:101F2000BB1F661F771F881F91505040A9F79E3F27
:101F3000510580F00C94F30E0C943E0F5F3FE4F3D8
:101F4000983ED4F3869577956795B795F795E7957D
:101F50009F5FC1F7FE2B880F911D9695879597F986
:101F60000895AA1BBB1B51E107C0AA1FBB1FA617E0
:101F7000B70710F0A61BB70B881F991F5A95A9F732
:101F800080959095BC01CD0108958F929F92AF925C
:101F9000BF92CF92DF92EF92FF92CF93DF93EC014B
:101FA000688179818A819B8161157105810591051F
:101FB00021F464E279ED8BE597E02DE133EF41E028
:101FC00050E00E94841449015A019B01AC01A7EA28
:101FD000B1E40E94A3146B017C01ACEEB4EFA50147
:101FE00094010E94B114DC01CB018C0D9D1DAE1D2E
:101FF000BF1DB7FF03C00197A109B048888399832B
:10200000AA83BB839F77DF91CF91FF90EF90DF9002
:10201000CF90BF90AF909F908F9008950E94C50F72
:10202000089580E091E00E94C50F0895A0E0B0E01F
:102030008093000190930101A0930201B0930301EA
:102040000895FB01DC010D900020E9F71197019044
:102050000D920020E1F708950F931F93CF93DF9324
:10206000009731F46115710519F480E090E03AC0F1
:102070008B01EC016EE070E081E090E00E94901234
:10208000FC01892B91F380E883830115110571F020
:102090001387028781E883838091580490915904C3
:1020A000892B21F4F0935904E09358042097C9F048
:1020B000D187C08783818260838380915A04909105
:1020C0005B04892B71F4F0935B04E0935A048091D4
:1020D0005C0490915D04892B21F4F0935D04E093FE
:1020E0005C04CF01DF91CF911F910F910895A0E083
:1020F000B0E0EDE7F0E10C94C614AE014B5F5F4F2A
:10210000FA0161917191AF0180915A0490915B0441
:102110000E94AF10E2E00C94E214AEE0B0E0E3E91C
:10212000F0E10C94C4140D891E8986E08C831A8317
:1021300009838FEF9FE79E838D83AE01475E5F4FDC
:102140006F89788DCE0101960E94AF10EF81F885DE
:10215000E00FF11F10822E96E4E00C94E014ABE047
:10216000B0E0E5EBF0E10C94B6146C017B018A0160
:10217000FC0117821682838181FFCCC1CE010196BA
:102180003C01F6019381F70193FD859193FF8191C5
:102190007F01882309F4BAC1853239F493FD859112
:1021A00093FF81917F01853229F4B60190E00E946E
:1021B000EA13E7CF912C212C312CFFE1F315D8F055
:1021C0008B3279F038F4803279F08332A1F4232D08
:1021D00020611DC08D3261F0803369F4232D2160B0
:1021E00016C0832D8260382EE32DE4603E2E2AC077
:1021F000F32DF8601DC037FC2DC020ED280F2A30CC
:1022000040F08E32B9F436FC81C1232D2064322E89
:1022100019C036FE06C08AE0989E200D1124922E29
:1022200011C0EAE02E9E200D1124222EF32DF06223
:102230003F2E08C08C3621F4832D8068382E02C0D2
:10224000883641F4F70193FD859193FF81917F01D9
:102250008111B3CF982F9F7D9554933028F40C5F54
:102260001F4F9FE399830DC0833631F0833771F0A0
:10227000833509F059C021C0F801808189830E5F40
:102280001F4F88248394912C530113C02801F2E03E
:102290004F0E511CF801A080B18036FE03C0692D9D
:1022A00070E002C06FEF7FEFC5010E94DF134C01A9
:1022B0008201F32DFF773F2E16C0280122E0420E47
:1022C000511CF801A080B18036FE03C0692D70E07A
:1022D00002C06FEF7FEFC5010E94CD134C01F32DBB
:1022E000F0683F2E820133FC1BC0822D90E08816DF
:1022F0009906B0F4B60180E290E00E94EA132A94B5
:10230000F4CFF50137FC859137FE81915F01B6016D
:1023100090E00E94EA1321102A9421E0821A910889
:102320008114910471F7E8C0843611F0893641F5C3
:10233000F80137FE07C060817181828193810C5F53
:102340001F4F08C060817181072E000C880B990B0C
:102350000E5F1F4FF32DFF763F2E97FF09C090951C
:102360008095709561957F4F8F4F9F4FF0683F2EFE
:102370002AE030E0A3010E942614882E861845C06A
:10238000853731F4232D2F7EB22E2AE030E025C090
:10239000932D997FB92E8F36C1F018F4883579F0D6
:1023A000B5C0803719F0883721F0B0C0E92FE0615F
:1023B000BE2EB4FE0DC0FB2DF460BF2E09C034FE4E
:1023C0000AC0292F2660B22E06C028E030E005C0E2
:1023D00020E130E002C020E132E0F801B7FE07C0A2
:1023E00060817181828193810C5F1F4F06C0608183
:1023F000718180E090E00E5F1F4FA3010E942614C0
:10240000882E8618FB2DFF773F2E36FE0DC0232D1C
:102410002E7FA22E891458F434FE0BC032FC09C062
:10242000832D8E7EA82E05C0B82CA32C03C0B82CFB
:1024300001C0B92CA4FE0FC0FE01E80DF11D808182
:10244000803321F49A2D997EA92E09C0A2FE06C0E0
:10245000B394B39404C08A2D867809F0B394A3FC96
:1024600011C0A0FE06C0B21488F4280C922C9B1850
:102470000EC0B21460F4B60180E290E00E94EA134C
:10248000B394F7CFB21418F42B1802C0982C212C57
:10249000A4FE10C0B60180E390E00E94EA13A2FE01
:1024A00017C0A1FC03C088E790E002C088E590E077
:1024B000B6010CC08A2D867859F0A1FE02C08BE2CD
:1024C00001C080E2A7FC8DE2B60190E00E94EA1311
:1024D000891438F4B60180E390E00E94EA139A94DC
:1024E000F7CF8A94F301E80DF11D8081B60190E0E9
:1024F0000E94EA138110F5CF222009F442CEB601E2
:1025000080E290E00E94EA132A94F6CFF6018681D9
:10251000978102C08FEF9FEF2B96E2E10C94D214CB
:102520000F931F93CF93DF93869F8001879F100D9A
:10253000969F100D1124C8010E94AC12EC01009767
:1025400029F0A80160E070E00E94D813CE01DF916D
:10255000CF911F910F9108950F931F93CF93DF9306
:102560008230910510F482E090E0E0916004F091F7
:10257000610420E030E0A0E0B0E0309719F1408144
:1025800051810281138148175907C8F084179507B4
:1025900069F4109731F012960C93129713961C93CE
:1025A00027C0009360041093610422C021153105F7
:1025B00019F04217530718F49A01BD01EF01DF012A
:1025C000F801DBCF21153105F9F0281B390B243038
:1025D000310580F48A819B816115710521F0FB0131
:1025E0009383828304C09093610480936004FE010E
:1025F000329644C0FE01E20FF31F81939193225063
:102600003109398328833AC020915E0430915F04F8
:10261000232B41F4209106013091070130935F0490
:1026200020935E04209104013091050121153105AC
:1026300041F42DB73EB74091080150910901241B88
:10264000350BE0915E04F0915F04E217F307A0F40C
:102650002E1B3F0B2817390778F0AC014E5F5F4FF8
:102660002417350748F04E0F5F1F50935F044093C7
:102670005E048193919302C0E0E0F0E0CF01DF912E
:10268000CF911F910F910895CF93DF93009709F495
:1026900081C0FC01329713821282A0916004B09134
:1026A0006104109781F420813181820F931F209162
:1026B0005E0430915F042817390751F5F0935F04E9
:1026C000E0935E0467C0ED0120E030E0CE17DF0745
:1026D00040F44A815B819E0141155105F1F0EA0108
:1026E000F5CFD383C28340815181840F951FC817D2
:1026F000D90759F488819981840F951F0296918397
:1027000080838A819B81938382832115310529F4FB
:10271000F0936104E09360043DC0E901FB83EA8328
:1027200049915991C40FD51FEC17FD0761F48081C1
:102730009181840F951F0296E90199838883828194
:1027400093819B838A83E0E0F0E012968D919C91C7
:102750001397009719F0FD01DC01F7CF8D919C9143
:1027600011979D012E5F3F4F820F931F20915E04B2
:1027700030915F042817390769F4309729F41092D3
:1027800061041092600402C013821282B0935F044D
:10279000A0935E04DF91CF910895FC0105906150F4
:1027A00070400110D8F7809590958E0F9F1F089567
:1027B000DC0101C06D9341505040E0F70895FC01E9
:1027C0006150704001900110D8F7809590958E0F60
:1027D0009F1F08950F931F93CF93DF93FB012381D6
:1027E00021FD03C08FEF9FEF2CC022FF16C0468152
:1027F0005781248135814217530744F4A081B18168
:102800009D012F5F3F4F318320838C932681378139
:102810002F5F3F4F3783268314C08B01EC01FB01F0
:102820000084F185E02D0995892BE1F6D8011696F3
:102830008D919C911797019617969C938E9316975E
:10284000CE01DF91CF911F910F910895FA01AA2730
:10285000283051F1203181F1E8946F936E7F6E5FE3
:102860007F4F8F4F9F4FAF4FB1E03ED0B4E03CD091
:10287000670F781F891F9A1FA11D680F791F8A1F74
:10288000911DA11D6A0F711D811D911DA11D20D0DB
:1028900009F468943F912AE0269F11243019305D95
:1028A0003193DEF6CF010895462F4770405D419386
:1028B000B3E00FD0C9F7F6CF462F4F70405D4A33D3
:1028C00018F0495D31FD4052419302D0A9F7EACF9B
:1028D000B4E0A6959795879577956795BA95C9F7CA
:1028E00000976105710508959B01AC010A2E0694BD
:1028F0005795479537952795BA95C9F7620F731F76
:10290000841F951FA01D0895052E97FB1EF40094AB
:102910000E949B1457FD07D00E94ED1407FC03D0C2
:102920004EF40C949B1450954095309521953F4F53
:102930004F4F5F4F089590958095709561957F4FAB
:102940008F4F9F4F08950E940F15A59F900DB49F24
:10295000900DA49F800D911D11240895B7FF0C9434
:10296000A3140E94A314821B930B08952F923F92ED
:102970004F925F926F927F928F929F92AF92BF928F
:10298000CF92DF92EF92FF920F931F93CF93DF933B
:10299000CDB7DEB7CA1BDB0B0FB6F894DEBF0FBE98
:1029A000CDBF09942A88398848885F846E847D84E5
:1029B0008C849B84AA84B984C884DF80EE80FD80E7
:1029C0000C811B81AA81B981CE0FD11D0FB6F8945D
:1029D000DEBF0FBECDBFED010895A1E21A2EAA1BE6
:1029E000BB1BFD010DC0AA1FBB1FEE1FFF1FA217BF
:1029F000B307E407F50720F0A21BB30BE40BF50BBC
:102A0000661F771F881F991F1A9469F76095709544
:102A1000809590959B01AC01BD01CF010895A29FC7
:102A2000B001B39FC001A39F700D811D1124911DA2
:102A3000B29F700D811D1124911D0895F894FFCF50
:102A4000010000000000620420000014B102000038
:102A500000000000BD02000000000000C202620190
:102A600054016201D602770169017701E3028C010A
:102A70007E018C01EE02A1019301A101F702000089
:102A8000000000000403B601A801B6010000D20155
:102A9000BD01D20114030600000000190304000068
:102AA00000002003020000000024030600000000D4
:102AB00019030400000000290302000000002E0397
:102AC0000600000000400304000000004A0302006A
:102AD000000000550306000000005F030400000032
:102AE0000069030200000000940206000000008D4F
:102AF00002040000000084020200000000750306CA
:102B0000000000007A0304000000008303020000BC
:102B100000008A0300000000000C1800120010687A
:102B20006572650A0D00496E76616C696420627594
:102B3000666665722C2074727920616761696E2EF9
:102B40002042756666657220697320612063686142
:102B5000720A0D0043414E20434F4E54524F4C4C8D
:102B60004552204E4F5420494E20434F4E46494730
:102B7000204D4F444500436F6E66696720646F6E59
:102B8000652C20737769746368696E6720746F20A1
:102B90006E6F726D616C206D6F6465206E6F770A69
:102BA0000D0043414E20434F4E54524F4C4C455222
:102BB000204E4F5420494E204E4F524D414C204DF7
:102BC0004F444500456D6D616E75656C00416368ED
:102BD000797574004D6178696D6500256400257311
:102BE0000A0D0047414D45005354415254494E4748
:102BF0000047616D65206F76657220210045584958
:102C0000540053637265656E206272696768746E02
:102C1000657373203A00446966666963756C7479FC
:102C2000203A0053657474696E6773203A005363E9
:102C30006F726573203A00506C6179696E67204746
:102C4000616D650043686F6F736520506C617965D5
:102C500072203A0048696768004D656469756D00C7
:102C60004C6F77004861726400456173790053636B
:102C70007265656E206272696768746E6573730051
:102C8000416E696D6174696F6E004469666669635F
:102C9000756C7479004D6178696D65203A2000414A
:102CA0006368797574203A2000456D6D616E7565B5
:102CB0006C203A2000457869740053657474696E1D
:102CC00067730053636F72657300506C61792047BE
:102CD000616D65005374617274696E67205352416F
:102CE0004D20746573742E2E2E0A0A0A0A0A0A0AE7
:102CF0000A0A0A0D005352414D2074657374206313
:102D00006F6D706C657465642077697468200A0D56
:102D1000253464206572726F727320696E20777239
:102D200069746520706861736520616E64200A0DA6
:102D3000253464206572726F727320696E2072652B
:102D40007472696576616C2070686173650A0D0044
:102D50005374756666206D65737365642075700ABB
:022D60000D0064
:00000001FF
